:020000040020DA
:10200000085600208D222000EF642000ED6420009F
:10201000ED642000ED642000ED642000000000006D
:10202000000000000000000000000000ED6420003F
:10203000ED64200000000000ED6420004D652000EC
:102040006F652000756520007B652000816520009C
:10205000000000005365200059652000ED64200059
:10206000ED642000000000000000000000000000FF
:102070000000000000000000ED64200000000000EF
:102080000000000000000000ED642000ED6420006E
:10209000ED642000ED642000ED642000ED6420007C
:1020A000ED642000ED642000ED642000ED6420006C
:1020B000ED642000ED642000ED642000ED6420005C
:1020C000ED642000ED642000ED642000ED6420004C
:1020D000ED6420000000000000000000000000008F
:1020E00000000000000000000000000000000000F0
:1020F0000000000000000000E5372000F537200058
:1021000000000000000000000000000000000000CF
:1021100000000000000000000000000000000000BF
:1021200000000000000000000000000000000000AF
:10213000000000000000000000000000000000009F
:10214000000000000000000000000000000000008F
:10215000000000000000000000000000000000007F
:10216000000000000000000000000000000000006F
:10217000000000000000000000000000000000005F
:10218000000000000000000000000000000000004F
:10219000000000000000000000000000000000003F
:1021A000000000000000000000000000000000002F
:1021B000000000000000000000000000000000001F
:1021C000000000000000000000000000000000000F
:1021D00000000000000000000000000000000000FF
:1021E00000000000000000000000000000000000EF
:1021F00000000000000000000000000000000000DF
:1022000000000000000000000000000000000000CE
:1022100000000000000000000000000000000000BE
:1022200000000000000000000000000000000000AE
:10223000000000000000000000000000000000009E
:10224000000000000000000000000000000000008E
:10225000000000000000000000000000000000007E
:10226000000000000000000000000000000000006E
:10227000ED642000B9322000DD322000512D200015
:102280005539200051282000ED64200010B5094B7D
:10229000FF221A600848094A4824E3690849121ACB
:1022A00098470848084AA3690021121A984700F085
:1022B0000DF8FEE7B4200D4040400020F84000201B
:1022C000CC732000F8400020034E002073B500F0CE
:1022D00005FC00F0D7FC00F05BFC00F025FA01F0F3
:1022E00027FB04F0E1F900F0C5FC00F0B3F8202072
:1022F00004F000F902F0CAF800F0DCFB002000F066
:1023000001FB012000F0FEFA4049002000F0BCFB78
:1023100002F000FA04F023F9082004F0EBF83C483E
:1023200004F053F93B4804F050F900F09DF9002007
:1023300002F014FA01F0F0F93748002102F030F908
:1023400001F01EFF04F000F900F024FD00F040FD54
:1023500002F03EFC0821684601F00EFB9DF80730B4
:102360009DF806602D4C43EA0626BDF806302C4841
:10237000238001F039FB2B4D21782B4801F034FBF1
:1023800061782A4801F030FBEC6A4AF6CD31022030
:10239000A04731460320A0471A210120A047082268
:1023A00069466B6B0B209847214801F01DFB214BC0
:1023B000186804F00AF9204801F016FB1F4B186852
:1023C00004F003F91E4801F00FFB1E4B186804F0DF
:1023D000FCF81D48002102F0E3F81C4B01219B682A
:1023E0008120984704F04AF9194804F03DF900F0BB
:1023F00067FB102004F07EF800F068FB02F05EF846
:1024000010F0FF0FF8D101F029FAF5E7D1462000CE
:10241000567120007071200078400020BE4D0020D1
:102420008A71200060702000A8712000AE71200029
:10243000B4712000D4702000BB712000E070200037
:10244000C27120000871200098400020786F2000A1
:102450004471200008B500F019F8024B00221A70F0
:1024600008BD00BF804C0020024B1A781043187042
:1024700000F014B8804C0020034B1A7822EA0000C8
:10248000187000F00BB800BF804C0020024B1A6897
:1024900042F038021A60704700C40D40014B1860CA
:1024A000704700BFE0C00D4020B1012805D1044BAA
:1024B00018787047034B186870470020704700BFBA
:1024C000814C002020900D4010B5094A002013785F
:1024D00001331370074B197802F03AF8BDE8104049
:1024E000054B06481968064A002301F07FBE00BF6D
:1024F000814C0020FC4D002030410020084100208C
:10250000C9242000812810B50C462AD0B0F5807F60
:1025100039D0802839D101F0B1FF1D4B032118704B
:102520001C4B00201A6822F008021A6053F8202C75
:1025300022F0080243F8202C53F81C2C22F0080249
:1025400043F81C2C53F8182C42F0080243F8182CBE
:10255000042200F0A5FB10480021032200F044FBF8
:1025600013E00E4B1A6831B142F008021A600020E5
:1025700000F0D2FA05E022F008021A60084600F0E6
:10258000D9FA204610BD064B1960012010BD00BFCE
:10259000FC4D002020940D40A525200010940D40F6
:1025A0003041002008B50F4804F087F8C0B1082179
:1025B0000C4804F07BF80C4B196861B10B4B0022FE
:1025C0001A700B4B0B481B681BB90B4A01F00EFE2F
:1025D00001E001F015FEBDE80840084802F066B9C8
:1025E00008BD00BF2841002030410020814C002060
:1025F00020900D4008410020C9242000786F200061
:10260000094B1A68A3F5826322F00402C3F8102470
:10261000D3F8F02342F00402C3F8F02300221A603A
:10262000024B01221A70704720C40D40824C0020DA
:10263000044B1868C0F30720030904BF1030C0B270
:10264000704700BF1C300D40064B1868C0F3C21025
:10265000012803D8C0F10200400370474FF4004046
:10266000704700BF14300D402DE9F04788B0FFF7E8
:10267000DFFF174B48261D68B36804469847736808
:10268000804698478246FFF7DFFF814600F094FAC4
:10269000074600F09DFA064600F070FA4FEA9A23CA
:1026A00000934FEA99230193C5F3400305F0010518
:1026B000029306900395049705964146C4F30712CA
:1026C00004F00F03034801F08FF908B0BDE8F0876C
:1026D0001C300D40D071200070B500F07BF8104C1C
:1026E000D4E9002390421946264638BF591C0024DD
:1026F00004430D46C6E900450A4ED6E90001801A9A
:1027000061EB0301241845EB0105C6E9004501F022
:102710001DFE18B1BDE8704001F0A8BD70BD00BF3E
:10272000F8400020004100200F4B104A1A6053F877
:10273000042C42F0050243F8042C53F8042C42F018
:10274000020243F8042C0A4B1A6842F001021A6094
:10275000084B00221A60042243F80C2C012243F893
:10276000082C0F22DA62704714E000E047E801000D
:1027700008200D400C000340034BD3E90023100A4E
:1027800040EA0360704700BFF8400020054B186026
:102790001C3B1A6842F001021A601A68D207FCD486
:1027A000704700BF2800034010B5064C236823F093
:1027B00001032360FFF790FF236843F001032360C8
:1027C00010BD00BF10E000E0014B1868704700BF6B
:1027D00034410020064B1A68596808331B681B04F3
:1027E00043EA01231343034A106843EA0060704739
:1027F00040500D404C500D4010B50446114B1B6825
:10280000DB07FBD503F0AFFEFFF7E4FF231A062B2F
:10281000D8BFC41D0C4B220E1A60C4F3074243F804
:10282000042CC4F3072243F8082CE2B243F80C2C22
:1028300003F095FE054B91201C60BDE8104000F0B0
:102840006BB900BF50500D404C500D40344100203A
:1028500008B500F0EBFF064B002291201A6000F053
:1028600077F9912000F066F9BDE8084001F0D0BE8C
:10287000344100200023084A1068084A9958084249
:1028800005D01A44D268906910F0800003D02C3330
:10289000582BF0D10120704728200D40886F200070
:1028A00038B5164B2C2202FB0033DC684FF6BF72A2
:1028B000236C62649BB213F0500205460DD0A369ED
:1028C000DB0609D40E4B53F825301BB12068C0B28B
:1028D0009847F4E72368F2E738BD13F4D06F0BD0C4
:1028E0004FF440732363FF236360E36AE262E362B1
:1028F000236B43F00103236338BD00BF886F2000C2
:1029000038410020012870B500F2B1802C254543E4
:10291000574E741994F92030002BC0F2A88094F916
:102920002230002BC0F2A380524800F0F1FF524B3E
:102930007259196800250A431A60596862680A4387
:102940005A609968A2680A439A60E368C3F8C85F4E
:1029500094F9201094F92120236902EBC1021A6036
:1029600094F8220094F82310227D00F0A3F994F843
:10297000220094F82310082200F092F994F9230021
:10298000012101FA00F094F922203C4B1203D658A1
:102990003043D05094F9210094F9202001FA00F03E
:1029A0001203D6583043D050E26850209063E2685A
:1029B000906B40F4D0609063E26802205063E2685C
:1029C0004FF440701063E268A0695062E268E06909
:1029D0009062E2687020D06294F92420AA421ADB47
:1029E00094F9250040EAC2022548026094F9256066
:1029F00094F92420B1401203D0580143D15094F8E7
:102A000024002A4694F8251000F04AF91D4B1A6854
:102A100042F400421A6094F8260002061CD494F88E
:102A20002710012200F046F994F92710012505FA34
:102A300001F194F92620114B1203D0580143D150D3
:102A400094F82600082294F8271000F029F90D4B7D
:102A50001A6842F480421A60E3681A6B42F001027D
:102A60001A6394F82800BDE8704000F055B870BDB6
:102A7000886F20007528200028200D4020940D40EC
:102A800004410D4030D0004001289CBF014B43F869
:102A90002010704738410020012808D8044B2C2210
:102AA00002FB0030C3689A699006FCD41960704735
:102AB000886F2000014B00221A60704700500D40C3
:102AC000014B08221A60704700500D40024BA022B3
:102AD0001A6050221A60704700500D40074A084B98
:102AE0001A60084B80321A60074B80321A60074B1D
:102AF00080321A60064B074A1A60704700E100E016
:102B00004C41002040410020444100204841002029
:102B100008ED00E0002020004209012100F01F0024
:102B200001FA00F0024B1B6843F82200704700BF17
:102B30004C4100204209012100F01F0001FA00F081
:102B4000024B1B6843F82200704700BF4041002041
:102B50004209012100F01F0001FA00F0024B1B683E
:102B600043F82200704700BF48410020024B18681C
:102B7000C0F38150704700BF04200D4008B5FFF737
:102B8000F5FF024B53F8200008BD00BFE06F2000A6
:102B9000054A064B1A60064B1A68064B1340B3F100
:102BA000807FF8D1704700BF0101020100200D4075
:102BB00004200D4000000101034B04481B6803F092
:102BC00007031841704700BF04200D400048E8018A
:102BD000034B04481B68C3F302231841704700BF2E
:102BE00004200D400048E801024B02EBC10243F80B
:102BF0002200704750410020F8B50A4E07460D46A6
:102C000006EB4116002447FA04F3DB07E1B204D5D2
:102C100056F824300BB1284698470134082CF2D1DD
:102C2000F8BD00BF504100202DE9F84305462C03B4
:102C300000F0FCFD0D4E04F1804303F55923D3F859
:102C40001894A359EF0023FA07F849EA08005FFA3D
:102C500088F808FA07F7C0B22946FFF7CDFF044B02
:102C60005FFA89F21A51A751BDE8F88318970D4011
:102C70001C940D4002480021802203F0EDBB00BFF0
:102C800050410020034A044B1A60044B803A1A60FA
:102C9000704700BF80400D40D4410020D04100204B
:102CA000034B01EBC0011B6843F82120704700BFB4
:102CB000D4410020034B01EBC0011B6843F82120E5
:102CC000704700BFD04100200E2870B50BD1154CC5
:102CD000236843F002052560134D2C6824F03F065D
:102CE00046F001062E60114D2E6826F0FF06324395
:102CF0001143014329600E4A12681206FBD50D4AA2
:102D00000D491268096802F0FC0242EA012292B2FF
:102D10000E2892B203D104490C6002490B6010B234
:102D200070BD00BF34000144F486084008700D40B7
:102D300000700D400C700D4010700D40034B186872
:102D4000D0F1010038BF0020704700BF00B7084035
:102D500010B58F20064CFFF7FBFE8F20FFF7EAFE31
:102D6000206818B101F034FC0023236010BD00BFBF
:102D7000D8410020064B1A6842F002021A605A68D5
:102D800042F002025A609A6842F002029A6070476A
:102D900048200D4007B50C4800F0BAFDFFF7EAFFE8
:102DA0000A4B1A6842F002021A6000220192019A4C
:102DB0000F2A02DC019A0132F8E71A6822F00202B7
:102DC0001A6003B05DF804FB3D2D200054200D4037
:102DD000064B1A6822F002021A605A6822F00202B8
:102DE0005A609A6822F002029A60704748200D40AB
:102DF000084B93F90020002A09DB074AED211160F6
:102E00001160E32111601A7862F07F021A700120CC
:102E1000704700BF864C0020388808400B4B1A686A
:102E20009207FBD41B685B0603D4094BED221A60A2
:102E30001A60084B1B6813B1054BEF221A60064B52
:102E400001201A7802F07F021A7070474C86084001
:102E5000388808402C860840864C002038B5A0F100
:102E60000B05EBB20F2B044613D80B4B1B6813F06A
:102E70003F0302D0FFF7D2FF012305225543074A43
:102E80000B3515600BB1FFF7B3FF054BE0B21C70BB
:102E900000E0FF2040B238BD488608403C8608402C
:102EA000F740002010B50B4B1B68980603D1FFF7C5
:102EB0009FFF012300E00023074A1268D107FBD5DA
:102EC000064A1468C4F300140BB1FFF7A7FF2046AD
:102ED00010BD00BF48860840648608404C86084004
:102EE000054B186800F02200B0F1200CDCF1000066
:102EF00050EB0C00704700BF4C860840024B18682E
:102F000000F04000704700BF4C86084038B50C46C2
:102F1000002900F08880102800F28780DFE800F0A8
:102F2000090F1A1C23394253586F738585787A7CB0
:102F30007F003F4B1B68003318BF012370E03D4BFF
:102F400005221B6803F07F030B3B93FBF2F30B336B
:102F5000DBB265E0384B00E0384B1A68043B1B6875
:102F600043EA02235CE000230B60354B354A1B68C3
:102F700003F001030B601268900644BF43F00203A4
:102F80000B60314B1B78002B4BD00B6843F00403D4
:102F900046E02E4B00201B780860002B41D0012317
:102FA0000B6038BD2A4B19680023C9B2294A02EBCD
:102FB000C3000079884202D852F8333030E0013340
:102FC0000E2BF3D128E0244B1B685BB2493B27E072
:102FD000224B1B68990603D1FFF70AFF012300E08B
:102FE00000231F4A1268D207FBD51E4A1568493DC7
:102FF000EDB20BB1FFF712FF6DB2256011E01A4B75
:1030000093F900300CE0194B1B7803F07F0307E0C5
:103010000B2305E01A2303E06FF0170300E00723FA
:103020002360002038BD022038BD012038BD00BF1C
:103030002C8608403C860840CC850840D485084052
:103040000086084024860840854C0020F640002079
:1030500040860840F06F20005886084048860840A7
:103060006486084060860840844C0020834C002021
:1030700038B505460C46134B1B689B07FBD4124B17
:1030800093F90030002B01DBFFF7B2FE0F4BEE226D
:103090001A60691E1A60A21C43F8102C21440220F9
:1030A00000F052FB013C0A4924012143022000F0B8
:1030B0005DFB022000F064FB022000F079FB0020A1
:1030C00038BD00BF4C860840864C00203888084038
:1030D00002C001C038B5234B93F90030002B0CDB44
:1030E000FFF778FB0446FFF783FEFFF773FB6FF0F3
:1030F00009031B1BC342F8D401E0002500E00125B1
:10310000194B1B7823B9194B1B68980604D405E0AA
:10311000FFF7C8FE0028F6D1022038BD144BE92283
:103120001A600424114B1A68910707D4013C14F06B
:10313000FF0403D00620FFF729FBF3E71B689A077B
:1031400005D40B4BEE221A6001241A6004E0074BF1
:103150001C6814F00204FAD10DB1FFF75FFE20469F
:1031600038BD00BF864C0020F64000204C86084049
:1031700038880840044B1A6810B142F0010201E09F
:1031800022F001021A607047008608400B280CD11B
:10319000082A0CD159B1084B083111F8012D43F818
:1031A000042F064A9342F8D103E001207047022021
:1031B00070470020704700BFA4850840C4850840C0
:1031C00038B5354B1B6813F040034DD0334B1A68AC
:1031D0001506D4B203D5ED221A611A6144E0042C1D
:1031E0003ED9023C8C423BDCE4B2032C22D00119D4
:1031F0000139032000F0B0FA631E29491B010320A6
:10320000194300F0B3FA032000F0BAFA032000F0EB
:10321000CFFA032000F0D8FA0028FAD11F4B214A38
:103220001968214D4939C9B211701B6818062B70F5
:1032300016D506E01A6802701A6842701B6883701F
:10324000ECE749B289B2042001F0E8FD29780320B7
:1032500001F07F0101F0E2FD144B1B7833B114E063
:10326000134BED221A601A60002038BD0A4B1A6811
:1032700052060AD51B681D0603D50E4801F0A8F9B1
:1032800003E00B4BED221A601A60094BED221A6025
:103290001A60204638BD00BF4C8608402888084088
:1032A00002C0010C844C0020834C0020854C00207F
:1032B000388808405040002008B5054B1B7813B9EA
:1032C000044801F085F9044B00221A6008BD00BFD4
:1032D000854C00205040002034880840074B1A6875
:1032E000042A1A4604D0064B197841F0400119709F
:1032F00000231360034801F06BB900BF2C8808401D
:10330000864C0020504000202DE9F84333493448D2
:103310000B68DFF8DCC023F007030B600368DFF8FD
:10332000D48043F008030360D8F80030DCF8004094
:103330000A68DFF8C4E022F070022A4F0A60DEF863
:1033400000203D68284EDBB2240243EA0563A4B2A4
:10335000234334685FFA82F943EA0949E3B21D4620
:103360000B68002223F0070343F001030B6003689E
:1033700042EA090443F008030360D8F80080DCF84F
:1033800000000B68000223F0700343F010030B6091
:10339000DEF800303F685FFA88F1366841EA07617D
:1033A00080B20143DBB241EA0343F1B20F4642EA85
:1033B0000306FFF70FFA22462B46921B63EB070327
:1033C000D903804641EA5241D0030023074A02F064
:1033D000B1FCC0EB0800BDE8F88300BF10880840CE
:1033E00004880840208808401C8808400048E801FC
:1033F0001888084014880840248808400B2810B515
:103400000C460CD1082A16D1A9B10C4B4C1E53F80E
:10341000042D04F8012F0A4A9342F8D107E00C2842
:1034200007D1042A07D131B1FFF76EFF20600020D9
:1034300010BD012010BD022010BD00BFC88508408E
:10344000A8850840124B1B681B03FBD5114B1A685B
:1034500042F002021A601A6842F001021A6019680A
:103460000C4A4807FBD5136823F001031360094B8E
:103470001A685107FBD41A6842F002021A601A68EF
:1034800042F001021A601A685207FCD5704700BF6B
:1034900004200D40048808400E4B10B518700E4CE7
:1034A00078B1FFF7CFFF23688D2023F0040323605A
:1034B0000A4B1A6822F004021A60BDE81040FFF7B8
:1034C00039BB23688D2043F004032360BDE810401E
:1034D000FFF722BB854C00208C86084034880840CA
:1034E000F8B5244D2E7816F0010641D1224B012467
:1034F0001C605C609C60214BF8221A600922C3F8B2
:103500009021152270331A601D4B0B221A601D4B3F
:1035100040221A601A687F2742F020021A60D522E2
:1035200043F81C6CDF62DA61174B1878FFF796FCE2
:10353000164B8E201F60FFF7EFFA022000F02CF9E7
:103540001349022000F008F9032000F025F9104982
:10355000032000F0F9F80F4B1878FFF79DFF0E4895
:10356000314601F01DF82B78204623432B70F8BD1F
:103570000020F8BD864C0020A8200D405886084049
:1035800004600D4024860840F740002094860840DF
:1035900028880840854C00205040002038B503881A
:1035A0000446CBB140F20742934203D0002303808C
:1035B000032038BD194B18781A4628B11B7873B10F
:1035C000174B1B7858060AD5822908D1137843B1C6
:1035D000134B1A78510614D440F20743238001207C
:1035E00038BD01F0CDFB01F065FB8021FFF7E8FD60
:1035F0000028EDDD80B201F01BFB0A4B1B699847E8
:10360000E6E700221A70084B1D68FFF707FCFFF77A
:1036100067FFAA06E0D0FFF7EBFBDDE7854C002053
:10362000864C0020087120004886084010B50C46E2
:1036300007285DD8DFE800F0040F1C20273D435722
:10364000012902D1FFF7D4FB56E0002952D1FFF740
:10365000E5FB204610BDA1F10B030F2B4AD8C8B2E1
:10366000FFF7FCFBB0F1FF3F0CBF0320002010BDB3
:103670008CB2E2B2214B02E08CB2214BE2B2240ABE
:103680001A605C6038E031F0070333D101F00100CB
:10369000FFF770FD1B4B14F0020F1A68C4F3800093
:1036A00014BF42F0200222F020021A60FFF7F4FE5D
:1036B00022E031F001001DD1134B197010BD01F152
:1036C00018031F2B16D80D23104AD80052F83310B8
:1036D0008C4204DC024412790D4B1A600CE013F1A9
:1036E000FF33F1D208E0CCB20A4B49341C6003E04E
:1036F000012010BD022010BD002010BDC88508406B
:10370000D085084024860840F6400020F06F200055
:10371000408608405886084010B5094C00212046D4
:10372000402202F099FE074B01221A602E205C60B5
:10373000FFF7F2F9BDE810402F20FFF7EDB900BF09
:103740000040002004F00F40032802D8014B000184
:103750001950704700400020032803D8024B03EBA8
:1037600000104160704700BF00400020032803D8CC
:10377000024B03EB00108160704700BF0040002047
:10378000032806D8012101FA00F0024B1A68104301
:103790001860704728F00F40032806D8012101FA6D
:1037A00000F0024B1A6810431860704720F00F4079
:1037B000032806D8012101FA00F0024B1A681043D1
:1037C0001860704714F00F40032806D8044B03EB31
:1037D0000010806800F0070070470020704700BFAD
:1037E00000400020024B4FF0FF321A60704700BFCC
:1037F00004F50F40014B01221A6070474CF00F4056
:10380000094B1A68194612F4801FF9D1043B1A6853
:1038100022F480321A600A68D203FCD41A6842F497
:1038200000321A60704700BF04200D4008B5094BF4
:103830001B689B070DD0084B1A685001FBD41A680F
:103840005101FCD5FEF7B0FFFFF7DAFF014B002274
:103850001A6008BD58200D4004200D4038B5264B95
:103860001C6814F03F0413D1244BE35823B198474C
:1038700070B10434142CF7D1214B1A781D463AB19B
:10388000FEF7A2FF0446FEF7A5FF201A092801D87B
:1038900030BF38BD002CFBD01A4B1A6822F400321E
:1038A0001A60194A1168C802FBD4196841F48031C2
:1038B00019601368D903FCD5FEF78CFF201A09287C
:1038C00003D8BDE83840FFF79BBF63280F4A02D9F1
:1038D0002B78022B00D00123136000F02FFE28B1BB
:1038E000FFF78EFF094B00221A6038BDFEF76CFF10
:1038F0000028CDD1F4E700BF48860840DC41002015
:10390000874C002000200D4004200D4058200D4021
:103910000023064A52F82310814206D011B942F81A
:10392000230070470133052BF3D17047DC410020A1
:10393000054B00221A60054B1A6842F004021A6017
:10394000034B02221A70704758200D4010ED00E022
:10395000874C002010B59020064CFFF7F9F8902016
:10396000FFF7E8F8206818B100F032FE002323606A
:1039700010BD00BFF041002030B5184B1B783BB99B
:10398000174A1278122A03D1164A12784B2A01D00C
:10399000002317E04A08934207DA02F52014E41ADC
:1039A00094F82740C4540133F5E70023934208DA22
:1039B00001F52014E41A94F827508418E5540133D3
:1039C000F4E730BD8B4207DA01F52012D21A92F8E3
:1039D0002720C2540133F5E730BD00BF2B0028007B
:1039E0002A002800290028000FB407B504AA52F8BD
:1039F000041B0448019200F01FF803B05DF804EBCB
:103A000004B070476040002038B505460C46102CC5
:103A100007D92B68686807491022984748B9103CB5
:103A2000F5E72CB12B68686802492246984738BDF3
:103A3000204638BDF07220002DE9F04F91B00446C9
:103A400008910992002508980378002B00F04F8315
:103A500003461E4613F8012B1AB90898864203D173
:103A60000CE0252AF5D1F8E708992368771A6068F1
:103A70003A469847002840F01E833D443378002B97
:103A800000F035837378002B00F0318301364FF05E
:103A9000000C324616F8013B2B2B11D006D8202BF8
:103AA00011D0232B12D14CF0080CF2E72D2B04D0AF
:103AB000302B0BD14CF0100CEBE74CF0010CE8E78D
:103AC0004CF0060CE5E74CF0020CE2E7A3F1310103
:103AD000C9B2082910D813464FF000081A4613F847
:103AE000011BA1F13000C0B2092814D80A2202FB40
:103AF0000818A8F13008F1E72A2B0AD1099B0132F6
:103B0000191D1B680991002BB8BF4CF0010C984699
:103B100001E04FF0000813782E2B1FD15178531C71
:103B2000A1F13000C0B2092810D8194600260A7841
:103B30000B46A2F13000C0B2092801F1010110D8F2
:103B40004FF00A0A0AFB0626303EF0E72A2906D182
:103B5000931C099A111D0991166802E013464FF053
:103B6000FF361A786C2A09D15A786C2A02D14CF0A7
:103B7000800C0AE001334CF0600C0BE0682A09D19C
:103B80005A78682A03D14CF0200C023302E001334A
:103B90004CF0400C1A78642A3CD01FD8462A48D0F2
:103BA0000DD8252A5AD003D8002A00F0A08257E069
:103BB000412A4AD0452A08BF4CF4424C50E0582ACA
:103BC00031D004D8472A08BF4CF4A13C48E0612A10
:103BD00038D0632A08BF4CF4A06C41E06E2A3AD07A
:103BE00007D8662A22D027D3672A28D0692A11D07D
:103BF00036E0732A2CD006D86F2A11D0702A08BF5D
:103C00004CF4407C2CE0752A07D0782A08BF4CF48D
:103C1000C85C25E04CF4245C22E04CF4106C1FE0FE
:103C20004CF4885C1CE04CF4B24C19E04CF4007C81
:103C300016E04CF4844C13E04CF4024C10E04CF4CD
:103C4000813C0DE04CF4C13C0AE04CF4E13C07E05F
:103C50004CF4806C04E04CF4E06C01E04CF4C06C7B
:103C6000013308930CF4E063B3F5806F00F09681A4
:103C700014D8B3F5807F27D0B3F5407F7FF4E3AE4F
:103C8000099BA349A34F1A1D1CF4804F099218BF2A
:103C90000F461A680DF13B010023B2E1B3F5C06F86
:103CA00008D0B3F5E06F00F01C82B3F5A06F7FF48D
:103CB000CAAEEAE123686068974901229847002864
:103CC00040F0F9810135BEE6002EACBF2CF0100C9F
:103CD00001261CF4005205920CF0E00337D0402B73
:103CE00017D008D8DBB1202B2AD1099B1A1D0992C5
:103CF00093F9002017E0602B11D0802B20D1099B75
:103D0000073323F0070303F108020992D3E90023E4
:103D10000AE0099B1A1D0992B3F9002003E0099BF0
:103D20001A1D09921A68D317002A73F1000009DAE4
:103D3000504263EB4301CDE902014FF0010934E049
:103D400000220023CDE902234FF000092DE0402B93
:103D500016D007D8D3B1202B21D1099B1A1D099267
:103D6000187811E0602B11D0802B18D1099B0733F4
:103D700023F0070303F108020992D3E900010BE0E5
:103D8000099B1A1D18880992002105E0099B1A1D3C
:103D900009921B681846F7E7CDE90201D4E7002233
:103DA0000023CDE902234FF000090CF4C053B3F512
:103DB000805F0CD0B3F5C05F39D0B3F5006F56D13A
:103DC000DDE902230DF13E07CDE9062304E00DF104
:103DD0003E01DDE902231AE0DDE906010143BB46AD
:103DE00040D0DDE906010A220023CDF804C001F02D
:103DF000A1FFDDE90601303207F8012D00230A2278
:103E000001F098FFDDF804C0CDE90601E4E752EACD
:103E100003008B4626D002F00700303001F8010D78
:103E2000D00840EA4370DF0802463B46EFE7384BD4
:103E3000384F1CF4804F0DF13E0118BF1F46DDE9DD
:103E4000022352EA03008B460CD002F00F00385CCC
:103E50004FEA131E01F8010D100940EA03700246F3
:103E60007346EEE70DF13E07CBEB070702E00DF1DD
:103E70003E0B002741F60803BE420CEA030341F261
:103E800008028CBFC7EB060A4FF0000A934204D128
:103E9000BAF1000F08BF4FF0010A41F60802934241
:103EA0000AEB07000CD1DDE90223134308D01B4BBA
:103EB0001B4A1CF4804F4FF0020618BF1A4601E05F
:103EC00000263246059991B1B9F1000F0DD10CF0E1
:103ED0000601022906D0134B062908BF012608BF98
:103EE0001A4604E00126104A01E0104A012683190F
:103EF00098458CBFC3EB08084FF000081CF001097F
:103F00001FD11CF0100F13D0C244C84619E000BFE7
:103F1000BB722000CC722000EE722000E072200004
:103F2000DD722000E5722000C0712000E3722000E5
:103F3000204641460192FFF767FD019A002840F0B4
:103F4000BA803EB11146236860683246984700281F
:103F500040F0B1805346102BD4F800C00AD9019329
:103F6000606865491022E047019B002840F0A3806B
:103F7000103BF0E733B160685F491A46E04700281C
:103F800040F099802368606859463A46984700286F
:103F900040F091803D44354455446DE0099BD3F891
:103FA00000901A1D0992B9F1000F08D04B461F4628
:103FB0003A780133002AFAD1C9EB070702E0DFF8AB
:103FC0003C910627002E02DBB74228BF3746B84592
:103FD0008CBFC7EB08084FF000081CF0010605D1A4
:103FE00020464146FFF710FD002864D12368606831
:103FF00049463A46984700285DD13D44002E6ED090
:104000003DE052EA03000E460BD002F00F00385C90
:104010001E0901F8010D100940EA037002463346FB
:10402000EFE70DF13B077F1A04D130234E1E01F854
:10403000013C012778230337B84506F8013C4FF0CF
:10404000300306F8023C88BFC7EB08084FF0230393
:1040500098BF4FF000081CF0010906F8033C04D19A
:1040600020464146FFF7D0FC28BB23686068F11E5C
:104070003A469847F8B93D44B9F1000F2FD0204691
:104080004146FFF7C1FC50B315E0099BB8F1010FA1
:1040900003F104021B688CBF08F1FF384FF00008E1
:1040A0001CF0010609928DF8283008D120464146BF
:1040B000FFF7AAFC10B14FF0FF3019E04544236828
:1040C00060680AA9012298470028F4D12EB1204641
:1040D0004146FFF799FC0028EDD108F1010845445D
:1040E000B1E4099B1A1D1B6809921D60ABE42846C8
:1040F00011B0BDE8F08F00BF00732000E772200010
:10410000F8B50388054616462BB14A2B15D0002377
:1041100003800320F8BD174802F0E0FA04462CB1F2
:10412000201DA16802F0ABFA2468F8E7124B0122C7
:104130001A704A232B800120F8BD8829FBD10D4835
:1041400002F0CCFA0446002CF3D0231D9E420ED17F
:104150000848214602F0CBFA084B62691F681A60D2
:10416000A2691E460AB1E06990473760E1E724681A
:10417000E9E700BFF4410020884C00200042002005
:1041800010B5064B002406481C7002F0A4FA214624
:104190000448BDE8104000F003BA00BF884C00207E
:1041A000F44100206840002070B50446E3610B4BE9
:1041B00004981B786061A26143B1094D094B2E68D8
:1041C000201D2B6002F05BFA2E6000E0A16021460A
:1041D0000548BDE8704002F09EBA00BF884C002040
:1041E0000042002068400020F441002013B5034C39
:1041F00024680094FFF7D8FF02B010BD00420020F1
:1042000010B5084B04461B781BB1043000F0A6F82B
:1042100001E0C360036121460348BDE8104002F09D
:1042200066BA00BF884C0020F441002010B50D4C48
:10423000236813B90C4A136010BDFEF79DFA23687A
:1042400093E806000A44121A9B683BB193E81200F7
:104250002144091A8A4228BF0A46F5E7024B104456
:10426000186010BDF8410020FC410020014800F01A
:10427000AFB900BF78400020F8B5038805462BB1E0
:10428000592B09D0002303800320F8BD1E4A136078
:1042900059232B800120F8BD872920D08229F7D10E
:1042A000194F00263C68002CF2D0204602F005FA97
:1042B00090B1E0688821224600F04AF950B9E060E8
:1042C000A3680EB1B36000E03B600023A360FFF77A
:1042D000ADFFE5E7FFF7CAFF2646A468E3E70A4912
:1042E0000B680BB90B60D3E7D868904201D19B688B
:1042F000F7E70B6099680029CAD0C86890420ABFE6
:1043000089680B469960F5E7F841002010B504462E
:10431000FFF7ACFFE3680B4A4BB113683BB1A34214
:1043200003D1094A1268DA6007E09B68F6E7064B9A
:104330001B68E36013681460A360BDE81040FFF7DA
:1043400075BF00BFF841002000420020024B1868F2
:10435000003018BF01207047F841002010B50B4A0B
:1043600004461368984206D18368136008E09A688F
:10437000A24203D01346002BF9D103E0A2689A6051
:10438000FFF754FF0023A360E36010BDF841002055
:1043900038B5836804460D469BB10A480460022084
:1043A000A07304F10C0098470238012801D9832D2D
:1043B00005D120462146BDE8384000F005B801236C
:1043C000A37338BD004200202DE9F8431D4A1E4E5C
:1043D00015683768044689462B469046A34204D0A8
:1043E0000BB11B68FAE7BDE8F88344B3A37BABB11C
:1043F0000023A37345B1AC4204D02846872122464E
:1044000002F04CF92D68F5E7A3683BB14C4505D0A7
:10441000346004F10C0083212A469847D8F8003014
:104420009C4209D12268074B00E022681A6005E02F
:104430001A68A242F9D01346002BF9D13760BDE8C3
:10444000F88300BF044200200042002010B5094B51
:1044500000221A70084B1C685CB1E37B3BB101235E
:104460000022A373E27320468221FFF791FF2468A4
:10447000F2E710BD8B4C002004420020024B18785C
:10448000421C1A70704700BF8C4C0020064B8A22D9
:104490001A70064A00231370054A1370054A136008
:1044A000054A1360704700BF8C4C0020894C0020E7
:1044B0008A4C002004420020004200202DE9F041F7
:1044C000194F3B780BB1FFF7C1FF184E337833B368
:1044D000174A0C241178174D4C432819D0F8048042
:1044E0000131806801F01F01013B2D5D11703370B7
:1044F00068B9114B1C6894B13B780BB1FFF7A6FF6C
:1045000020462946424602F0C9F82468F3E7812D87
:1045100004BF012383732946424602F0BFF83B786B
:1045200030781844BDE8F0818B4C00208A4C002084
:10453000894C00200842002004420020024A034B1C
:1045400010781B78184470478A4C00208B4C002050
:10455000F0B50B4C2378202B0FD00A4D0A4F2E7844
:104560000C251E4406F01F066E430133BD19B955D4
:104570002370A8606A600020F0BD0120F0BD00BF7C
:104580008A4C0020894C00200842002038B5034C9A
:10459000256802F083F8256038BD00BF0042002086
:1045A00030B50A4D0A462C68234683420DD00BB124
:1045B0001B68FAE748B10460012128608173838198
:1045C0008121BDE83040FFF7E1BF30BD044200204B
:1045D00040B1837B013BDBB2012B03D8024A0123AC
:1045E000C3731370704700BF8B4C002010B5024698
:1045F000064853600468029B11609360026014B91E
:104600000846FEF7F9F8002010BD00BF88430020DF
:1046100010B5084C206858B10023236081684368B6
:104620009847236823B11868BDE81040FEF7E4B846
:1046300010BD00BF8843002038B505880446672DAB
:1046400009D0792D2ED0002D32D1FFF717FF1B4B4B
:1046500018701B4B1D601B4802F0E1F8431C01D190
:1046600067231DE00A28164B07D01A687E2AF2DC61
:10467000511C1960144B9854EDE7196800254A1C29
:104680001A60114A0D4B555428461978FFF760FF00
:104690000E4B852118682A46FFF75AFF20B9792367
:1046A000238009E0852907D1054B00221A60D2E753
:1046B00000230380032038BD012038BD014E0020B7
:1046C000944300208C4300200E4D00200042002027
:1046D0000D2810B5014615D00B4C23782BB90B488B
:1046E00002F08AF848B9012306E00A2805D10748F4
:1046F00002F082F808B1002323700548FFF768FF35
:10470000012010BD002010BD8D4C00208C430020E6
:104710008840002008B505480549802202F065F868
:10472000BDE8084003480021FFF73ABF8C43002052
:104730008E4C002088400020064B1A68143342F04B
:10474000040243F8142C044A1B68106843EA002052
:1047500080B2704700700D4018700D40174B1A68FA
:1047600022F00C021A60164B01221A601A68012A04
:10477000FCD1144B08221A60E322C3F81422124B16
:104780001B68DB07FBD500231A4610490132096874
:10479000102A01F0010143EA01034FEA43039BB2EF
:1047A000F3D1002BF0D00A4A190A03F0FE0311607E
:1047B0001360084BEF221A60704700BF00700D4075
:1047C000A8200D4024860840648608409C86084046
:1047D00014700D403888084070B505880446772D60
:1047E00030D07E2D40D0002D4ED1FFF747FE294B13
:1047F0001870294B1D601E463368284A264D52F812
:1048000023204AB126480021C1549368802098474C
:104810002A6801322A60EFE7224A1370772321E0E9
:104820001F4AD256002A13DB1B4B1A6801321A604A
:10483000194B1C4A1B6812789342F1DB1A4B1B6818
:10484000002BEBD0184A00231360134A1360EFE7E4
:10485000104A00201178114A52F82320FFF778FE01
:1048600030B97E23238013E00A4B1B788B420FD193
:10487000094B0B4A1B68D15C01F07F01D1540A4BF4
:104880001A6801321A60CFE700230380032070BD4D
:10489000012070BD024E00209843002040400020BF
:1048A000FD4D00208E4D00209C430020094B1A78BE
:1048B0000023934204DA084951F82310814207D1BA
:1048C000064A0748D15C61F07F01D154FFF780BEF2
:1048D0000133EEE78E4D002040400020FD4D0020CA
:1048E0009840002070B504460D46164600F00CF9BD
:1048F000266128460249BDE8704002F018B900BFA1
:1049000041732000014801F0E6BE00BFA043002033
:10491000014B1860704700BFA4430020014801F01C
:10492000DDBE00BFA0430020F8B5064609480C468E
:10493000174601F0D3FE60B18388A34206D1856893
:104940003DB1314622463B46A847F8BD01F002FF83
:10495000F1E7F8BDA043002010B50B4C0B4A616E87
:1049600004F138000023FFF741FCFFF7E5FE636E1A
:10497000074AB0FBF3F101FB130104F11800002317
:10498000BDE81040FFF732BCA84300209549200045
:10499000AD492000044B5A6E51001A6E914294BFEB
:1049A00059665A66FFF7D8BFA843002010B500F03B
:1049B000E7F900F07FF9002303800446FFF7AEFF1C
:1049C00068B1037B5BB12388818804EB830251804B
:1049D000C18801339180238001F0BCFEF0E720887C
:1049E0008000023080B200F023F9238823B103480D
:1049F000BDE8104000F03CB810BD00BFA843002047
:104A00009DF80030012B04D1024B9A6D5A66FFF7D6
:104A1000A3BF7047A8430020F8B5094C86460E4650
:104A200015461F4620467146064A00F00FF8A66557
:104A3000E56527660448BDE8F840FFF769BF00BF99
:104A4000A8430020B8702000014A200070B5044639
:104A50000E461546044AFFF745FF65613046034997
:104A6000BDE8704002F063B8C070200043732000BE
:104A700010B5054904461A2000F0DEF92046BDE8CD
:104A8000104001F0DEBE00BFBE4D002010B504781E
:104A9000437843EA04238B400449885CC2F108024E
:104AA00000EA23201041C0B210BD00BF47732000B0
:104AB000054B10B51B689847044618B10120A18822
:104AC00000F0ACF9204610BDC870200038B5064B88
:104AD00005465B689847A9880446012000F09EF9C6
:104AE000201C18BF012038BDC870200008B5024B3B
:104AF0009B68984708BD00BFC8702000014801F0BE
:104B0000EABD00BF144400200346818001481946D5
:104B100001F001BE144400200146014801F0E7BD48
:104B20001444002010B50446054801F0D7FD28B113
:104B30008388A34202D001F00DFEF8E710BD00BF4C
:104B400014440020F8B507460A480D46164601F001
:104B5000C5FD044638B1A3680BB1284698472046E6
:104B600001F0F8FDF5E7384629463246BDE8F84041
:104B700001F06FBE1844002038B5FFF799FF0546D5
:104B8000094801F0ABFD044630B1636803B19847B2
:104B9000204601F0DFFDF6E725B12846BDE83840A4
:104BA00001F051BE38BD00BF1844002010B50446C6
:104BB000FFF78CFF38B100F057F8034B034821464C
:104BC0009B689847012010BD34712000454B2000A0
:104BD00008B5084B1B689847074B5B689847074B1D
:104BE0005B689847064B5B689847064B5B6898473D
:104BF00008BD00BF607020000871200034712000E3
:104C0000E0702000D470200010B5074B1A88824253
:104C100008DB064980B20C880444101A18800C8006
:104C2000012010BD002010BD484600204A4600204B
:104C3000014B1880704700BF48460020004870476D
:104C40001C440020014B1888704700BF48460020D4
:104C5000034A044B10781B781844C0B2704700BF59
:104C60008F4D00204A4600202DE9F0410D4B1A8857
:104C70001E46A2B10C4B00241F880C4B93F80080F9
:104C800025B2BD4209DAFFF7E3FF094B01341D44A9
:104C90002B5CA4B205F80830F2E700233380BDE8AE
:104CA000F08100BF4A460020484600208F4D00207A
:104CB0001C44002008B5FFF7CBFF014B184408BD8A
:104CC0001C440020F8B50C4B07461D780B4B1E8882
:104CD000AC19802C0CDC2A46094901F047FBFFF790
:104CE000E9FF3D4401463246284601F03FFB00E023
:104CF00000242046F8BD00BF8F4D0020484600200C
:104D00001C44002008B5FFF7A3FF024B1B88184482
:104D100080B208BD4846002010B50446FFF7F2FFF8
:104D20002318802B0FDC013880B203B2002B04DB88
:104D3000064AD15C2244D154F5E7054B01201A788C
:104D400014441C7010BD002010BD00BF1C44002086
:104D50008F4D002010B507480021342201F07CFB64
:104D60000024054805492044023401F000FF082CC6
:104D7000F7D110BDC84D0020C04D00205471200057
:104D8000044A00231380044A1380044A1370FFF777
:104D9000E1BF00BF4A460020484600208F4D00205A
:104DA00038B50C460546802C28BF8024FFF7E8FF65
:104DB00029462246034801F0D9FA034B20461C80BD
:104DC00038BD00BF1C4400204846002010B5074BEA
:104DD00003F1340253F8044B934240F8044BF9D1E9
:104DE000034A13680B6053684B6010BDC84D002028
:104DF000C04D002010B5074B00F1340250F8044BB1
:104E0000904243F8044BF9D10B68034A13604B6896
:104E1000536010BDC84D0020C04D0020024B23F848
:104E200010100120704700BFC84D0020014B33F81F
:104E300010007047C84D002008B5044B1A3803EB2A
:104E4000400001F094FE012008BD00BFC04D0020CD
:104E5000024B1A3803EB4000704700BFC04D0020E2
:104E60000148024901F086BEC24D00205471200065
:104E700008B5044801F071FCBDE80840024801F0A3
:104E80006CBC00BFB4400020A840002038B50E48DC
:104E900001F073FC0546A8B10C4801F06EFC044615
:104EA000286028B92946084801F07BFC204638BD17
:104EB000FFF708FF04F1B601A4F8800004F18200B6
:104EC000FFF784FF284638BDA8400020B4400020EA
:104ED00010B504462146074801F079FC48B1216825
:104EE000054801F05EFC21460248BDE8104001F093
:104EF00058BC10BDA8400020B440002010B50446A6
:104F00002146094801F063FC68B12468B4F88010B8
:104F10002046FFF745FF04F1820004F1B601BDE829
:104F20001040FFF767BF10BDA840002008B5024B36
:104F3000DB68984708BD00BF3471200008B5024BFC
:104F40005B69984708BD00BF0871200008B5024B97
:104F50009B69984708BD00BF0871200008B5024B47
:104F6000D86900B1804708BD0871200010B504461B
:104F700048B1006B01F0B2FB024620B1024B03487E
:104F80002146DB68984710BD08712000BB6B2000EC
:104F900070B590F829400123032C88BF042403FA3C
:104FA00004F40C4B0546DB699847013C002808BF18
:104FB0000120444305D0FFF7BFFBB0FBF4F303FB34
:104FC000140405F1080021462B46034ABDE8704051
:104FD000FFF70CB9087120006D4F20002DE9F0415A
:104FE00007461B208846FFF733FF494B05461A78D2
:104FF000484C22B901221A70FFF79EFB20802388BB
:1050000013B9444B01221A8021880A204B1C2380AB
:10501000FFF704FF404801F061FB044640B1201D4A
:10502000294601F0A7FDE0B9204601F093FBF4E723
:105030003A4801F0A2FB044600285ED02946201D14
:1050400001F095FD002304F12C00206384F8283042
:1050500084F82930E36201F03EFB2F48214601F03D
:105060005AFB206B01F06FFB072846DC2C4801F04F
:1050700084FB0546002834D02A4801F07EFBA86056
:1050800058B3FFF703FF686018B30920AE68FFF755
:10509000CDFE10B90823337203E00920FFF7C6FEE6
:1050A000307286E880010D20FFF7C0FE01282946F6
:1050B000206B02D101F03EFB01E001F02CFB206BE4
:1050C00001F00CFB854220D12046BDE8F041FFF7FE
:1050D0005FBF1448A96801F064FB1148294601F03C
:1050E00060FB206B01F02FFB38B90B48214601F023
:1050F000FEFA0A48214601F054FB38464146042294
:105100000123BDE8F04101F01BBFBDE8F08100BF05
:10511000B24D00203C4C00201C450020CC4000201B
:10512000D8400020C040002008B5054801F015FB1C
:10513000044801F012FBBDE80840034801F00DBB34
:10514000D8400020C0400020CC4000202DE9F04194
:105150008B680D460646106B1446D3F800805F68D6
:1051600001F0C5FA6868FFF7B3FEA968144801F0BA
:1051700018FB1448294601F014FB206B01F0AEFA2D
:1051800040B1002384F8283084F829302046FFF706
:10519000FFFE0BE004F10800FFF732F80A48214651
:1051A00001F0A5FA0948214601F0FBFA40463946CC
:1051B000324694F82830BDE8F04101F0C1BE00BF8E
:1051C000C0400020D84000201C450020CC400020DA
:1051D000014B1888704700BFF44000202DE9F041D2
:1051E000012986B006460F46144640F3A680037890
:1051F00004F1100503F007028DF80C20C3F3C00280
:105200008DF80D20C3F300128DF80E20C3F3401269
:10521000C3F380138DF8103043788DF80F20C3F35B
:1052200040018DF81210C3F3810103F001028DF8E3
:105230001310C3F301119B098DF815308DF814106C
:105240008DF8112003AB03CB1B88206169602B8193
:105250000AB1B51C02E0B378F51CA37603A801A936
:1052600002AA01F00FFD9DF81380B8F1000F20D0C5
:10527000029B23B16A7815F8023B03EB0223B8F1D5
:10528000020FA38309D120462E4901F070FC6B78F0
:10529000237015F8023B637011E0B8F1030F0ED1D3
:1052A0000023EA1AD279E2540133082BF9D10835E8
:1052B00005E02046234901F05AFCA4F81C809DF823
:1052C0001580B8F1000F28D0019B53B16A7815F80A
:1052D000023B03EB0223029A9BB2E3831AB9A38336
:1052E00001E0A38BE383B8F1020F0AD104F10800B7
:1052F000144901F03CFC6B78237215F8023B637291
:1053000012E0B8F1030F0FD10723E95CE21A13F1A1
:10531000FF33D173F9D2083506E004F108000949DA
:1053200001F025FCA4F81E80AE1BBB1BE363A56344
:10533000BE42D4BF3046002000E0002006B0BDE8E9
:10534000F08100BF5471200030B591B00546FFF7E1
:105350003FFF4FF6FF73984202D14FF0FF307BE0E2
:1053600040226846002101F077F83C4B1A782AB9B0
:1053700001221A70FFF7E0F9394B18701420FFF77B
:1053800055FD8DF810001320FFF750FD8DF8120029
:10539000FFF766FD18B100238DF8133004E00B20F1
:1053A000FFF744FD8DF81300002301248DF814301D
:1053B0008DF815308DF81840ADB10A20FFF736FD95
:1053C00028B10A20FFF732FD8DF81A000BE0244BBC
:1053D0001A7802B91C7019780A204A1C1A708DF8C4
:1053E0001A10FFF71BFD02248DF81940FFF7F0FE9D
:1053F000ADF81C00FFF734FD38B1FF238DF81740DE
:105400008DF800308DF8013008E01B20FFF720FDFB
:105410000146684601F0ABFB8DF81740FFF7D8FE58
:105420001049ADF81E0002A801F0A1FBFFF742FCF5
:105430000E90FFF707FC0F90684601F09CFC0446B5
:105440004DB1FFF769FC002887D0FFF7F7FB014655
:10545000684601F0A9FC204611B030BDB44D0020D3
:10546000B34D0020BE4D002038B500240A4D1A204F
:1054700005EB8405FFF7ECFC294601F07BFB38B116
:105480000A20FFF7D3FCAB781B1A5842584138BDAD
:105490000134102CEAD138BD3E4C002038B5002430
:1054A000134D1A20FFF7D4FC05EB840101F062FBD9
:1054B000621C10B9102A1446F2D105EB82010023B8
:1054C0000133934207D06FF0030058430C1854F88F
:1054D000044C0C50F4E70A20FFF7A8FCA8701A202F
:1054E000FFF7B6FCBDE838400146014801F03FBB7C
:1054F0003E4C00200A4B13B500241C70094B1C8045
:10550000FDF768F9009400F580510122064B074829
:10551000FFF76CF8064B01221A7002B010BD00BFF5
:10552000B64D00207E4C0020CD592000F0450020D3
:10553000BC4D002008B5064B1B783BB1054B1A78D3
:1055400022B901221A70044B1B6A984708BD00BF9C
:10555000BC4D0020B64D00206070200008B5084BFF
:105560001B785BB1074B1A7842B1074A127802F0F8
:10557000FF011AB91970054B5B6A984708BD00BF57
:10558000BC4D0020B64D0020B84D002060702000BA
:1055900008B5FFF7E3FF024B00221A6008BD00BF09
:1055A000EC450020044B1B7823B9044B1B680BB956
:1055B000FFF7D4BF704700BFB74D0020EC45002077
:1055C00008B5084B00221A70074BC2B21A70074A7E
:1055D000074B18B1012111701B6A01E05B6A107062
:1055E000984708BDBC4D0020B84D0020B64D0020A6
:1055F0006070200037B50B4B1A7802F0FF056AB9CE
:1056000001241C70084B1D70FDF7E4F8009500F5AF
:10561000805122460548064BFEF7E8FF012003B003
:1056200030BD00BFBC4D0020B84D0020F04500202B
:10563000CD59200037B50A4B05461B780C466BB197
:10564000FDF7C8F8221A022A48BF841C00230093E1
:10565000284621460122034BFEF7C8FF03B030BDA8
:10566000BC4D0020CD59200010B5204B1A681C46B7
:105670000AB9FFF773FFFFF7E5FA032834D0FFF705
:1056800041FB88B31A4B9B68984700282CDBFFF737
:10569000D9FA48B3FFF736FB30B31B20FFF7D8FB2E
:1056A000144901F067FA68B11320FFF7BFFB2060CF
:1056B00068B1FFF73FFF10480421104A0023FEF7AE
:1056C00095FD09E0FFF7CCFB0028EDD110BDFFF7F9
:1056D00045FF0948FEF794FDFFF7C6FE20B9FFF726
:1056E000DDFE074BDB68984710BD00BFEC4500208E
:1056F00028712000BE4D002000460020915520005A
:10570000E07020002DE9F04F774E89B03378059096
:105710001BB9764B1B78002B69D0FFF7F3FA0028F2
:1057200065D073491A20FFF787FBFFF799FB824684
:105730000C20FFF77BFB90B1FFF7E4FA6D4D81463B
:105740006C68FFF77BFA4946A0476B4FAB694FF097
:10575000010887F800800293984778B909E0012191
:105760000B20FFF75BFB654B5B6898470028E3DA8B
:105770003DE0EB6903939847044610B100233B706A
:105780008BE0FFF7EBFE337886F80080DBB2049302
:10579000059B73BB4FF00608FDF71CF88346FFF727
:1057A000C9FEFDF717F86FF00303CBEB0303C34209
:1057B000F7D46B699847834640B9FFF7CFFE87F867
:1057C00000B0FFF7CBFE049B337066E0FFF7C6FE28
:1057D000FDF700F88346FCF7FDFF6FF00F03CBEBFE
:1057E0000303C342F7D4B8F10108D5D101E0052481
:1057F00075E01AF1000A18BF4FF0010ABAF1000F64
:1058000001D1FFF797FE0A20FFF710FB5FFA80FB3C
:10581000FDF75CF9FCF7DEFF8046FCF7DBFF384B59
:10582000C8EB0303C34244D5FDF750F9BAF1000FAA
:1058300035D0AB6848469847FCF7CCFF024601924A
:10584000FCF7C8FF019A6FF00C039B1AC342F6D411
:10585000BAF1000FE1D1029B984760B3FCF7BAFFA1
:105860008046FCF7B7FF6FF01403C8EB0303C34295
:10587000F7D42B6907A803219847032824D19DF862
:105880001E305B4520D100254FF00108FFF766FE72
:10589000049B337000233B70D5B101241FE0059BAE
:1058A000002BC6D0FCF796FF164BC8EB0303C34290
:1058B000BFD4002509E0039B98470028CED16B692F
:1058C00098470028CAD0A8E701254FF00008DDE777
:1058D000BAF1000F03D198450CBF02241C462046A4
:1058E00009B0BDE8F08F00BFBC4D0020B84D0020CE
:1058F000BE4D002060702000B74D002028712000B0
:10590000B0EFFFFFDEFDFFFF2DE9F04707468846B9
:105910001446002A54D02B4B1B683BB15068FFF74C
:10592000EDFA01223846414613461DE01646304640
:1059300000F010FF05467068FFF7E0FA0C20FFF753
:1059400075FAE0B91DB113200121FFF767FA0121B3
:105950000B20FFF763FA1C4B5B689847002807DAB7
:105960003846414605220123BDE8F04701F0E8BA78
:105970000C200121FFF752FA706801F00AF975B1A5
:105980002E46D4E7384641462246012301F0D8FA94
:10599000B4B9AEB1B9F1000F12D00125344620469A
:1059A00000F0D8FE06466068FFF7A8FA1320FFF75C
:1059B0003DFA81462846FFF7A5FE03280446E1D1BB
:1059C000BDE8F087EC450020287120002DE9F34761
:1059D0006B4E05463388B3F5D47F00F0CC8007D8F2
:1059E000002B40F0C380FCF7F5FE664B186006E024
:1059F000B3F5ED7F3CD0B3F5FB7F40F0B780614B52
:105A00001A6802F580521A605F4A002313705F4AD9
:105A100013705E4B1B78012B1DD85D4B1A7882B931
:105A20005C4A12686AB91B780BB9FFF783FD5A4BC1
:105A30005B69984718B9544B01221A700BE0FFF7C5
:105A4000B1FDFCF7C7FE00F110012846FFF7F2FD9B
:105A50004FF4D4738BE04C4B1B78002B74D0FCF7C5
:105A6000B9FE4E4B4E4A1860002313704D4A137016
:105A7000474BDFF840911B78002B4ED199F800304E
:105A8000002B4AD0FCF7A6FE444B1A686FF4CC7387
:105A90009B1AC34241D5404F414C7B69984718B18E
:105AA00023780133237000E02070DFF8F880D7F806
:105AB00018A098F80030013388F80030D0474346EA
:105AC00008B1002222702278052A02D9FFF76AFD68
:105AD00023E01B780A2B05D9D04718B9FB699847F2
:105AE0000028F3D0FB699847B8B92F4B1B788BB1CE
:105AF0002F68FCF76FFE07F114043F1A17F1120F1D
:105B000048BF841C00230093284621460122274BCE
:105B1000FEF76CFD4FF4ED7329E099F800309BB16E
:105B20001D4CA369984748B1FCF754FE1B4B1A68FB
:105B30006FF4CC739B1AC34204D505E0E369984720
:105B40000028F1D1FFF72EFDFCF744FE0D4A184B5B
:105B500011685B1AC3427FF552AF1168284601F500
:105B60008051FFF767FD4FF4FB7300E000233380A3
:105B700002B0BDE8F087054B1A7801321A7048E789
:105B80007E4C0020E8450020B94D0020BA4D002091
:105B9000B74D0020EC45002060702000FC4500203F
:105BA000B54D0020BB4D0020BC4D0020CD5920003C
:105BB000A0F0FFFFB64D002008B5024B1B689847C8
:105BC000023008BDFC70200038B50C4B9B6898472C
:105BD000051E02DA4FF0FF3038BDFFF76BF803788F
:105BE0000446002BF6D10220FFF70EF80028F1D072
:105BF0006078FFF71DF8A81C38BD00BFFC702000BE
:105C000070B50220FFF788F810B94FF0FF3070BD73
:105C1000FFF714F8002505700446FFF713F86070CD
:105C2000FFF770F80446FFF7C7FF20442A2812DC6C
:105C3000C0F12B04FFF73EF80646FFF703F8E4B285
:105C400029462246304400F007FCFEF7FBFF2044C3
:105C500080B2FEF7EDFF044B5B689847041ED4DB6F
:105C6000FFF702F8A01C70BDFC70200008B5024BC5
:105C70009B68984708BD00BFD470200038B5054622
:105C80000C4614200121FFF7C9F8034B28469B68F6
:105C90002146984738BD00BFE0702000832910B529
:105CA000044602D1164800F014FE23882BB14D2B78
:105CB00015D000232380032010BD11488121114AF3
:105CC000FEF7C4FEFEF738FDC0F3080101F50071D0
:105CD0000D4800F0D4FC4D232380012010BD0A485C
:105CE00000F0D6FC0028F8D006210848FFF758F845
:105CF0000348FEF7BDFE064800F067FCE2E700BF80
:105D0000304600204C712000204600206D7320009A
:105D10007373200070B54C780D78FEF7CBFF2946E1
:105D2000034622460248BDE87040FDF75DBE00BF55
:105D30008A7320004BB942B9002908BF002802D05D
:105D40004FF0FF31084600F03BB882B0EC462DE939
:105D5000005000F01DF8DDF804E002B00CBC704704
:105D60002DE9F843089C1546984606460F4600F074
:105D700029F805FB01F9A5FB002300FB089C6344FF
:105D8000B21A67EB0303C4E90023BDE8F88300BF40
:105D90002DE9F843089E1746804689461D4600F0C7
:105DA0006FF900FB05F3A0FB074507FB01373D44F6
:105DB000B8EB040469EB0505C6E90045BDE8F883C6
:105DC000704700BF00292DE9F00FA8BF0026C0F2E0
:105DD000AB80002BC0F2A380894690469C461446B7
:105DE00005460F46002B48D18A425CD9B2FA82F3AD
:105DF00053B1C3F1200201FA03F720FA02F208FAC4
:105E000003F400FA03F51743210CB7FBF1F201FB91
:105E10001277A0B200FB02F34FEA154C4CEA074799
:105E2000BB4209D93F1902F1FF3C04D2BB4284BFF7
:105E3000023A3F1900D86246FF1AB7FBF1F301FBA3
:105E4000137100FB03F0ADB245EA0141884208D965
:105E5000091903F1FF3703D2884288BF023B00D8FB
:105E60003B4643EA024300221846114616B140421F
:105E700061EB4101BDE8F00F70478B4284BF002207
:105E80001346F1D8BCFA8CF1002940F09580CC453E
:105E900028BF80458CBF002201229CBF01230A46F7
:105EA000E2D91346E0E712B90123B3FBF2F4B4FAE6
:105EB00084F3002B3ED13F1B200C1FFA84FC0122EF
:105EC000B7FBF0F100FB11770CFB01F34FEA15482B
:105ED00048EA0747BB420AD93F1901F1FF3880F071
:105EE000C780BB4284BF02393F1940F2C180FF1A0C
:105EF000B7FBF0F300FB13700CFB03FCADB245EAFB
:105F00000040844508D9001903F1FF3703D28445C6
:105F100088BF023B00D83B4643EA0143A4E7F6436F
:105F2000524263EB430357E7404261EB41014FF0BC
:105F3000FF364EE79C40C3F1200927FA09F125FA04
:105F400009F99F40200CB1FBF0F200FB12111FFA7F
:105F500084FC0CFB02F849EA07094FEA194747EAB3
:105F60000141884505FA03F509D9091902F1FF3302
:105F700080F08480884584BF023A09197ED9C8EB35
:105F80000101B1FBF0F300FB13170CFB03F81FFA40
:105F900089F949EA0747B84509D93F1903F1FF31A3
:105FA00004D2B84584BF023B3F1900D80B46C8EB6A
:105FB000070743EA024283E7C1F1200328FA03F20C
:105FC0000CFA01FC29FA03F420FA03F309FA01F9A7
:105FD00042EA0C0C4FEA1C4AB4FBFAF70AFB1744DE
:105FE0001FFA8CFB0BFB07F043EA09094FEA194340
:105FF00043EA0444A04208FA01F209D914EB0C0464
:1060000007F1FF3338D2A04284BF023F644433D942
:10601000201AB0FBFAF30AFB13000BFB03FB1FFA79
:1060200089F949EA0040834509D910EB0C0003F1D6
:10603000FF341FD2834584BF023B60441AD943EA30
:106040000747A7FB0223CBEB000098420DD305FACC
:1060500001F114BF0023012391422CBF002203F061
:1060600001023B46002A3FF4FFAE7B1E0022FBE606
:1060700041463CE72346E2E71F46C9E71A467EE76A
:106080002DE9F003144605460E46002B42D18A4204
:1060900055D9B2FA82F34BB1C3F12006994020FAE8
:1060A00006F602FA03F400FA03F50E43220CB6FBDF
:1060B000F2F002FB1066A7B207FB00F34FEA154CA3
:1060C0004CEA0646B34209D9361900F1FF3104D231
:1060D000B34284BF0238361900D80846F61AB6FB18
:1060E000F2F302FB136207FB03F7ADB245EA02428B
:1060F000974209D9121903F1FF3180F0ED809742E0
:1061000088BF023B40F2E88043EA00400021BDE83E
:10611000F00370478B4284BF00210846F7D8B3FADA
:1061200083F4002C4AD18B4228BF82428CBF0021CD
:1061300001219CBF01202146E9D90846E7E712B9B1
:106140000124B4FBF2F4B4FA84F7002F40F0848009
:106150000B1B260CA7B20121B3FBF6F006FB103394
:1061600007FB00F24FEA154C4CEA03439A420AD966
:106170001B1900F1FF3C80F0B1809A4284BF0238C5
:106180001B1940F2AB809B1AB3FBF6F206FB1233ED
:1061900007FB02F7ADB245EA0345AF4209D92C1916
:1061A00002F1FF3380F09C80A74288BF023A40F2A0
:1061B0009780BDE8F00342EA00407047C4F1200533
:1061C00022FA05F7A34021FA05F620FA05F5A140C9
:1061D0003B434FEA1348B6FBF8FC08FB1C661FFA6A
:1061E00083F909FB0CF729430D0C45EA0646B74233
:1061F00002FA04F204D9F6180CF1FF3578D3AC4654
:10620000F61BB6FBF8F708FB176609FB07F989B21E
:1062100041EA0645A94504D9ED1807F1FF3161D3DC
:106220000F4647EA0C47A7FB0223C9EB05059D4231
:106230000DD300FA04F114BF0025012591422CBFB3
:10624000002105F00101384600293FF460AF781EB7
:106250000021BDE8F0037047BC40C7F1200321FADC
:1062600003FC20FA03F3B940260CBCFBF6F806FB4E
:1062700018CC1FFA84F909FB08F219430B0C43EA06
:106280000C4C624500FA07F50AD91CEB040C08F126
:10629000FF3334D2624584BFA8F10208A4442ED94A
:1062A000C2EB0C0CBCFBF6F206FB12C309FB02F0BE
:1062B00089B241EA0343984209D91B1902F1FF311F
:1062C00004D2984284BF023A1B1900D80A461B1A0E
:1062D00042EA08414F463FE70B4615E7604652E762
:1062E0001A4666E7A94584BF023FED1899D897E79B
:1062F000B74284BFACF1020CF61881D87FE798460C
:10630000CEE700BF032A70B414D940EA01039B070B
:1063100011D10C46034625681E682146AE42184638
:1063200004F1040403F1040304D1043A032A1846D7
:106330002146F0D8C2B105780C78A54204BF02F11D
:10634000FF32002306D00CE010F8015F11F8014F76
:10635000A54206D1934203F10103F5D1002070BCA0
:106360007047281B70BC70471046F8E7844641EA26
:10637000000313F0030349D1403A23D30B680360B1
:106380004B6843608B688360CB68C3600B690361B3
:106390004B6943618B698361CB69C3610B6A03629B
:1063A0004B6A43628B6A8362CB6AC3620B6B036383
:1063B0004B6B43638B6B8363CB6BC3634030403168
:1063C000403ADBD230320BD30B6803604B6843603A
:1063D0008B688360CB68C36010301031103AF3D201
:1063E0000C3205D351F8043B40F8043B043AF9D28F
:1063F000043208D0D2071CBF11F8013B00F8013B62
:1064000001D30B8803806046704700BF082A13D36E
:106410008B07B1D010F00303AED0C3F10403D21A3E
:10642000DB071CBF11F8013B00F8013BA4D331F896
:10643000023B20F8023B9FE7043AD9D3013A11F816
:10644000013B00F8013BF9D20B7803704B784370A5
:106450008B78837060467047F0B4840743D0541E35
:10646000002A3ED0CDB2034603E0621E002C38D095
:10647000144603F8015B9A07F7D1032C2AD9CDB251
:1064800045EA05250F2C45EA054515D9A4F1100765
:106490003F0903F1100606EB07161A461560556012
:1064A0009560D5601032B242F8D104F00F04013784
:1064B000032C03EB07130DD91E462246043A032A88
:1064C00046F8045BFAD8221F22F003020432134478
:1064D00004F003042CB1C9B21C4403F8011BA3420D
:1064E000FBD1F0BC704714460346C6E7FEE708B58B
:1064F000FBF7CCFE73B50646002425463046FBF775
:10650000B3FF00230193019BAB4203DA00BF019B61
:106510000133F7E73046FBF7AFFF00230193019A01
:10652000C5F5C8739A4203DA00BF019B0133F5E752
:106530000134B4F5487F05D0B4F5C87FDDDDC4F57E
:106540004875DBE702B070BDFCF75AB8FCF7C4B879
:1065500070470020FCF7A4B90120FCF7A1B9EFF3C4
:10656000108062B67047EFF3108072B6704700205B
:10657000FCF75ABB0120FCF757BB0220FCF754BBC9
:106580000320FCF751BB10B50C46FCF771FD20460B
:10659000BDE81040FCF79EBD10B50446E1B20020F6
:1065A000FCF77AFA204610BDF8B505460F4646427C
:1065B0000024B44207D0285D28B1BC4203D0FFF7C5
:1065C000EBFF0134F5E72046F8BD38B50546002459
:1065D000285D28B10134FFF7DFFF2B19002BF7D11D
:1065E0000A20FFF7D9FF204638BD00207047012060
:1065F000704710B50021044630220E20FCF764FBE2
:1066000084B1012C0CD1001142F21073A0F28E5013
:1066100058432A2390FBF3F000F5C340283010BD07
:106620004FF0004010BD002070470120704710B5AA
:106630000021044630220F20FCF746FB5CB1012C00
:1066400007D140F6F253584347F6F07390FBF3F04E
:1066500010BD4FF0004010BD08B51AB108461146F4
:10666000FFF7A2FF002008BD10B5041F54F8040F67
:1066700018B10021FDF794FFF8E710BD704710B581
:10668000044600F013F82046BDE81040FDF73EBE7A
:10669000C068D0F1010038BF00207047837BDB0762
:1066A00001D5FDF775BE7047FFF752BF10B54160C9
:1066B0000446FCF761F8206010BD10B50446FCF7F5
:1066C0005BF82368C3F101030344606898422CBF60
:1066D0000020012010BD0023036070470068704750
:1066E000006818B103680BB11846FBE770470368F0
:1066F00010B57BB100228B4207D119680AB901603D
:1067000000E0116000221A6010BD1C6814B11A4626
:106710002346F0E710BD38B505460C46FFF7E7FF06
:10672000002323602846FFF7DBFF08B92C6038BD43
:10673000046038BD38B504460D46FFF7D8FF23681E
:106740002B60256038BD0368002013B101301B6841
:10675000FBE7704700B10068704710B504466288D7
:1067600000214068FFF778FE23886288A068002136
:106770005A43BDE81040FFF76FBE10B541880023B3
:106780008B420CDA4268D418D25C32B901222270F2
:106790000188826801FB032010BD0133F0E700206F
:1067A00010BD30B5826844880023A3420DDA8A42C6
:1067B00007D14268D15C09B10139D1544268D05C3B
:1067C00030BD058801332A44EFE7FF2030BD8368E0
:1067D000994208D34288008800FB023081422CBFD6
:1067E000002001207047002070470023013A01601B
:1067F000027143718371704710B5437984790279CE
:106800001C1B1440944208D00268D1544379027989
:10681000013313404371012010BD002010BD837966
:1068200041790279C91A114206D00168C95C013365
:106830001A408271084670474FF0FF307047FEF7EC
:106840006BB9FEF7B3B908B503691B6803B1984784
:1068500008BD08B503695B6803B1984708BD704778
:10686000F7B50F46FEF726FA03880646ADF8003066
:10687000BDF80050FEF7E6F9AB00023383420FD8B3
:1068800002360024AC420BDA56F8040B01340190B6
:10689000BDF804103846BDF80620FEF745F8F1E7CC
:1068A00003B0F0BD08B543695B6803B1984708BD04
:1068B00013B504461A20FEF7CBFA014601A800F0F2
:1068C00056F963691B6813B1204601A9984702B0C5
:1068D00010BDFFF7B4BF831C0020023313F8042C53
:1068E0001AB113F8032C1044F7E77047072B2DE972
:1068F000F84305460E4617461C4607DC0846114677
:106900001A46FEF7C3F82870BDE8F8834FEAE3099A
:10691000B2B14FF0000806EB080039460822FEF736
:10692000B5F805F8080008F10108C845F3DB14F0D4
:10693000070229EAE97914D006EB090039460CE090
:10694000F35DEB5501374F45FADB14F0070229EAF6
:10695000E97906D006EB09000021FEF797F805F863
:106960000900BDE8F8832DE9F341FEF7A3F90446D9
:106970000220FEF749F908B9002044E06078237846
:1069800003EB002080B2FEF7CDF805460028F3D0D7
:10699000FEF790F92A7B804612F0070018BF01200D
:1069A00000EBD200FEF730F90028E5D0AC680026F5
:1069B000023414F8023C2BB3192B14F8017C08EBB9
:1069C000E60106F0070209D901A83B46FFF78EFF52
:1069D00014F8020C01A9FEF72FFA10E00023ADF81D
:1069E000043001A83B46FFF781FF9DF805109DF894
:1069F000043014F8020C43EA0121FEF70FFA3E447A
:106A00000234D6E7284602B0BDE8F081C1F110019A
:106A1000CB1A9A400378C2F307210B4303704378E3
:106A20001A4342707047072B2DE9F0470746894605
:106A300015461C4601DC12782CE04FEAE30809B148
:106A4000002600E014E0B819AA5D49460823013683
:106A5000FFF7DCFF4645F6DB14F0070328EAE87091
:106A60001CD02A5CC3F10801894442FA09F20EE005
:106A70006B5C7B5401314145FADB14F0070328EAD3
:106A8000E8700BD0295CC3F1080241FA02F23844E5
:106A90000021D2B2BDE8F047FFF7B8BFBDE8F087EC
:106AA0002DE9F743027B044612F0070318BF0123C8
:106AB00003EBD205A81CFEF72FF998B3FEF7BEF83A
:106AC000A3880370A3881B0A4370FEF7B7F8871CDE
:106AD0002A4638460021FFF7BFFCA468002502348F
:106AE00014F8020CE8B1192814F8016C07EBE50959
:106AF00005F0070805D9FEF7ABF9414602464846BE
:106B000009E0FEF793F98DF80400000A8DF80500FE
:106B10004146484601AA3346FFF785FF3544023413
:106B2000DEE7012003B0BDE8F083FDF7E7BF38B52D
:106B30000D46FDF7F7FF044620B185602846FDF7B6
:106B4000D5FF207338BD10B5FEF792F9FEF718F99E
:106B5000FDF7D8FEFFF7E9FFBDE8104002204FF433
:106B600000714FF4F0524FF4E123FDF755BF0B884D
:106B70000380704708B50222FFF7C4FBD0F1010083
:106B800038BF002008BD016801F18200B631FEF770
:106B90001DB910B5046804F1820004F1B601FEF7D6
:106BA00015F92046FEF78EF8A4F8800010BD0368A2
:106BB00003EB4101B1F8820070472DE9F0410E4628
:106BC0001746044600285BD0006BFFF787FD05469B
:106BD00068B10A216868FFF7EAFF80460A20FEF7DD
:106BE00025F9804505D02846FFF7B4FDEFE7BDE85D
:106BF000F081AB68002B43D0032E3AD8DFE806F0D3
:106C000002190B4094F8283000201F4484F8290012
:106C100084F828702EE0002284F8292094F8282097
:106C20001744FFB284F828701B7ABB4219D802209F
:106C300020E094F829201744FFB2052F02D884F8E9
:106C4000297007E0002284F8292094F828200132D6
:106C500084F8282094F828201B7A9A4201D3012036
:106C600008E02046FEF794F96868BDE8F041FFF7B8
:106C70008ABF304629462246BDE8F041FEF766BA93
:106C8000BDE8F08110B518B3037A022B08D1C4799E
:106C90000379CCB1D3F1010338BF0023002413E002
:106CA0000378022B0ED003792BB9447A14F0030435
:106CB00018BF012400E00024C37913F0030318BFB8
:106CC000012301E000231C4601B10C6002B11360F6
:106CD00010BD37B504460D46084606220021FFF7D1
:106CE000BBFB637DD9075CBF01232B70237E012B87
:106CF0000DD8E37D9A0708D0637E9B0705D0E28B11
:106D0000A38B9A4201D1012300E00023237504F1F3
:106D10001000694601AAFFF7B5FF009B0BB10223E3
:106D2000EB70019B0BB102236B70E37D03F0030357
:106D3000022B03D0032B0CBF08230023AB70637E10
:106D400003F00303022B03D0032B0CBF0823002303
:106D50002B7103B030BD02280CBF0220082008446C
:106D6000431A002B05DD10F8013DFF2BF8D0002061
:106D700070470120704707B56946FFF7AAFF9DF8E5
:106D800000009DF80130023018449DF8023018448C
:106D90009DF8033018449DF8043018449DF80530E0
:106DA000184403B05DF804FB73B504460D4669460C
:106DB000FFF78FFFA37C617C03F001031B0101F04F
:106DC000010143EAC101237CE27C03F0070319437C
:106DD000237D02F0010241EA421203F0010342EA7C
:106DE00083132B70607D617E00F0010040EA81100A
:106DF000A17DE27D237E01F0010140EA410102F024
:106E0000030241EA820203F0030342EA03136B70B8
:106E10009DF800309DF80120012B09BFA37E0223BD
:106E2000AB700323022A08D1A18B5A1CE954A18B11
:106E3000D2B20233090ADBB2A9549DF80210002233
:106E40009E1A5018F6B230B16018104410F8010CB8
:106E5000013AA855F4E79DF803200B44022ADBB25F
:106E600008D1E18B5A1CE954E18BD2B20233090AF2
:106E7000DBB2A9549DF8040000229E1A1118F6B244
:106E800029B121181144C979013AA955F5E71844E7
:106E9000C0B202B070BD30B591B0FDF70BFF044633
:106EA000FDF7D0FE6A4601462046FEF797F90446F4
:106EB00010B94FF0FF303BE0FDF7A6FE0028F8D0F8
:106EC00014209DF81010FDF7A9FF9DF81730ABB105
:106ED000BDF81C50FEF77CF9854205D0BDF81C209A
:106EE0004FF6FF739A42E4D19DF817006946FFF709
:106EF00032FF18B91B206946FDF79EFF02A91A2030
:106F0000FDF79AFF13209DF81210FDF787FF9DF8FB
:106F100015300A2013B99DF81A1001E04FF6FF71E1
:106F2000FDF77CFF0E209DF81A10FDF777FF204635
:106F300011B030BD0120FEF707BA0020FEF704BAF9
:106F400010B5044618B1084611461A46A04710BDB0
:106F50001020704770B5044600200D46FEF7D2FBA6
:106F60000328024606D0204629460123BDE870408A
:106F7000FFF7E6BF70BD7047C9712000A92420004B
:106F800005252000000000000100000001000000B5
:106F90000100000000C0004000410D400000000062
:106FA000080000002C00000000000001FFFFFFFFB0
:106FB00005000000020000000200000002000000C6
:106FC00000D0004008410D40020000000800000011
:106FD0002C00000002010200FFFFFFFF060000007E
:106FE0006472200068722000777220007B7220009B
:106FF00007000000FF00000005000000ED00000099
:1070000003000000D500000001000000C5000000E2
:1070100000000000B6000000FFFFFFFFB00000000E
:10702000FDFFFFFFA1000000FBFFFFFF910000003C
:10703000F9FFFFFF88000000F7FFFFFF720000006C
:10704000F5FFFFFF62000000F3FFFFFF58000000A4
:10705000F1FFFFFF42000000E8FFFFFF000000001B
:10706000E134200071302000D530200087652000F9
:10707000C1312000A52E2000E12E2000FD2E200091
:10708000F12D20001D2E20000D2F20002D36200078
:10709000FD3320008D312000A2722000F365200016
:1070A000EB652000EF652000B67220002F662000FF
:1070B000276620002B662000616820005F682000A2
:1070C000B1682000A568200067692000A16A20003F
:1070D000D768200050732000476B2000794B2000B8
:1070E0005573200029512000DD4F20002D4F200036
:1070F0003D4F20004D4F20005D4F20003B6F200092
:10710000356F2000976E20005A732000F554200040
:10711000556F20000959200069562000F5552000C0
:10712000C1552000516F2000B95B2000015C200098
:10713000C95B200065732000776F20007D5C200014
:107140006D5C2000E440002000000000155D200080
:10715000000000000000436F6E74696B692D332ED0
:10716000782D323631362D676566366430666200BA
:107170005A6F6C65727469612052452D4D6F74654C
:1071800020706C6174666F726D0052696D6520636A
:107190006F6E6669677572656420776974682061CF
:1071A0006464726573732000253032783A002530AC
:1071B00032780A00204E65743A2000204D41433A4F
:1071C0002000205244433A2000427574746F6E00D0
:1071D0004343323533383A2049443A203078253019
:1071E000346C782C207265762E3A20504725642E18
:1071F00025642C20466C6173683A20256C75204B01
:1072000069422C205352414D3A20256C75204B6920
:10721000422C204145532F5348413A2025752C20BC
:107220004543432F5253413A2025750A53797374CD
:10723000656D20636C6F636B3A20256C7520487A0E
:107240000A492F4F20636C6F636B3A20256C7520C1
:10725000487A0A52657365742063617573653A20D4
:1072600025730A00504F520045787465726E616C48
:107270002072657365740057445400434C44206F7A
:107280007220736F667477617265207265736574BE
:107290000063633235333820524620647269766564
:1072A00072004F6E2D436869702054656D70657271
:1072B00061747572650056444433003031323334A2
:1072C0003536373839414243444546003031323350
:1072D000343536373839616263646566003078006A
:1072E0003058002D002B00286E756C6C290025008D
:1072F000202020202020202020202020202020208E
:10730000303030303030303030303030303030307D
:107310004374696D65722070726F636573730045A5
:1073200076656E742074696D65720053657269616B
:107330006C206472697665720053656E736F727348
:107340000000001A1000000080C0E0F0F8FCFEFF12
:1073500052696D650043534D4100436F6E74696B14
:10736000694D4143006E756C6C7365630048656CD4
:107370006C6F0062726F616463617374206D65731A
:10738000736167652073656E740062726F61646318
:10739000617374206D6573736167652072656365E1
:1073A000697665642066726F6D2025642E25643AC7
:1073B00020272573270A0042726F6164636173742A
:0973C000206578616D706C6500B8
:1073CC00A8702000786F200098702000000000004A
:1073DC0000000000917220009D352000000000008C
:1073EC00596620000000000000000000107320000F
:1073FC000141200000000000000000001F7320006D
:10740C007942200000000000000000002B732000D7
:10741C0039462000000000000000000039732000F5
:10742C00D94720000000000004000800984D0020FF
:10743C009C440020BE000800904D00204C460020CB
:10744C000C000800AA4D0020BC44002034000200AF
:10745C00A04D0020804500200C000800A24D00200B
:10746C002045002000000000B77320009D5C200028
:08747C0000000000CDAB011A75
:0874840040E9FF7F0100000058
:020000040027D3
:10FFD400FFFFFFF30000000000202000FFFFFFFFF1
:10FFE400FFFFFFFFFFFFFFFFFFFFFFFFFFFFFFFF1D
:0CFFF400FFFFFFFFFFFFFFFFFFFFFFFF0D
:040000050027FFD4FD
:00000001FF
