:020000040020DA
:10200000886900208D22200027AD200025AD20000A
:1020100025AD200025AD200025AD200000000000EA
:1020200000000000000000000000000025AD2000BE
:1020300025AD20000000000025AD200089AD200066
:10204000ABAD2000B1AD2000B7AD2000BDAD20008C
:10205000000000008FAD200095AD200025AD2000D0
:1020600025AD20000000000000000000000000007E
:10207000000000000000000025AD2000000000006E
:10208000000000000000000025AD200025AD20006C
:1020900025AD200025AD200025AD200025AD200078
:1020A00025AD200025AD200025AD200025AD200068
:1020B00025AD200025AD200025AD200025AD200058
:1020C00025AD200025AD200025AD200025AD200048
:1020D00025AD20000000000000000000000000000E
:1020E00000000000000000000000000000000000F0
:1020F0000000000000000000F9382000093920002D
:1021000000000000000000000000000000000000CF
:1021100000000000000000000000000000000000BF
:1021200000000000000000000000000000000000AF
:10213000000000000000000000000000000000009F
:10214000000000000000000000000000000000008F
:10215000000000000000000000000000000000007F
:10216000000000000000000000000000000000006F
:10217000000000000000000000000000000000005F
:10218000000000000000000000000000000000004F
:10219000000000000000000000000000000000003F
:1021A000000000000000000000000000000000002F
:1021B000000000000000000000000000000000001F
:1021C000000000000000000000000000000000000F
:1021D00000000000000000000000000000000000FF
:1021E00000000000000000000000000000000000EF
:1021F00000000000000000000000000000000000DF
:1022000000000000000000000000000000000000CE
:1022100000000000000000000000000000000000BE
:1022200000000000000000000000000000000000AE
:10223000000000000000000000000000000000009E
:10224000000000000000000000000000000000008E
:10225000000000000000000000000000000000007E
:10226000000000000000000000000000000000006E
:1022700025AD2000CD332000F1332000652E200055
:10228000693A20005529200025AD200010B5094BE2
:10229000FF221A600848094A4824E3690849121ACB
:1022A00098470848084AA3690021121A984700F085
:1022B0000DF8FEE7B4200D4040400020F141002021
:1022C00014C92000F841002083610020F7B500F018
:1022D00087FC00F059FD00F0DDFC00F09DFA01F0F4
:1022E000B1FB08F014FE00F047FD00F0C9F8202013
:1022F00008F01CFD02F08CF900F05EFC002000F0FC
:1023000083FB012000F080FB4949002000F03EFCE7
:1023100002F0C0FA08F041FD082008F007FD45482A
:1023200008F071FD444808F06EFD00F015FA002039
:1023300002F0D4FA01F07AFA4048002102F0F2F9F2
:1023400001F0A8FF08F01EFD00F0AEFD00F0CAFD90
:1023500007F014FA6846082101F098FB9DF8073051
:102360009DF80670364D43EA07276B4603CB28607D
:102370003448696001F0C2FB00242E46315D3248CA
:10238000013401F0BBFB072C2D4DF7D12F4EE9791D
:102390002F4801F0B3FBF46A4AF6CD310220A04782
:1023A00039460320A0471A210120A0476946082288
:1023B000736B0B209847274801F0A0FB264B186849
:1023C00008F021FD254801F099FB254B186808F01D
:1023D0001AFD244801F092FB234B186808F013FD06
:1023E000224A2B6813606B68536007F001FB20489A
:1023F000002102F097F91F48002102F093F91E4BCB
:1024000001219B688120984708F056FD1B4808F081
:1024100049FD00F0D7FB102008F088FC00F0D8FB45
:1024200002F00EF910F0FF0FF8D101F0A1FAF5E774
:10243000514820004CC5200066C52000784000208F
:102440007B61002080C520009EC5200088C420003C
:10245000A4C52000AAC52000E0C42000B1C520000A
:10246000ECC42000B8C5200014C52000005A00208C
:102470000C41002098400020A0C3200044C520004B
:1024800008B500F019F8024B00221A7008BD00BF11
:102490008A520020024B1A781043187000F014B8CA
:1024A0008A520020034B1A7822EA0000187000F0CC
:1024B0000BB800BF8A520020024B1A6842F0380263
:1024C0001A60704700C40D40014B1860704700BF90
:1024D000E0C00D4008B50B4B1B78184205D02028F2
:1024E00006D0042808BF022003D04FF0004008BDEA
:1024F0000520054B80211A7800F070FC20EAE0707E
:1025000000B208BD8C5200208B520020802810B5EC
:102510000C4603D0B0F5807F26D033E08B1E222BF3
:1025200030D81A4BE24319681140196053F8201C47
:102530000A4043F8202CA20604D5002005210122E0
:1025400000F030FC630704D500200221012200F0D6
:1025500029FC00F03BFC0E4B30221A700D4B002082
:102560001A7814441C7010BDCCB2102C06D001D8BF
:1025700024B107E0202C01D0302C03D1044B20469D
:102580001C7010BD4FF0004010BD00BF20940D40E6
:102590008B5200208C52002020B1012805D1044B21
:1025A00018787047034B186870470020704700BFC9
:1025B0008D52002020900D4010B5094A002013785C
:1025C00001331370074B197802F084F8BDE810400E
:1025D000054B06481968064A002301F091BE00BF6A
:1025E0008D520020726100203042002008420020FD
:1025F000B9252000812810B50C462AD0B0F5807F7F
:1026000039D0802839D101F0FBFF1D4B0321187010
:102610001C4B00201A6822F008021A6053F8202C84
:1026200022F0080243F8202C53F81C2C22F0080258
:1026300043F81C2C53F8182C42F0080243F8182CCD
:10264000042200F0AFFB10480021032200F04EFBF3
:1026500013E00E4B1A6831B142F008021A600020F4
:1026600000F0DCFA05E022F008021A60084600F0EB
:10267000E3FA204610BD064B1960012010BD00BFD3
:102680007261002020940D409526200010940D408A
:102690003042002008B50F4808F054FCC0B10821B2
:1026A0000C4808F03DFC0C4B196861B10B4B002243
:1026B0001A700B4B0B481B681BB90B4A01F020FE2C
:1026C00001E001F05FFEBDE80840084802F0AEB945
:1026D00008BD00BF28420020304200208D5200205B
:1026E00020900D4008420020B9252000A0C3200002
:1026F000094B1A68A3F5826322F00402C3F8102480
:10270000D3F8F02342F00402C3F8F02300221A6049
:10271000024B01221A70704720C40D408E520020D7
:10272000044B1868C0F30720030904BF1030C0B27F
:10273000704700BF1C300D40064B1868C0F3C21034
:10274000012803D8C0F10200400370474FF4004055
:10275000704700BF14300D402DE9F04788B0FFF7F7
:10276000DFFF174B48261D68B36804469847736817
:10277000804698478246FFF7DFFF814600F09EFAC9
:10278000074600F0A7FA064600F07AFA4FEA9A23C5
:1027900000934FEA99230193C5F3400305F0010527
:1027A000029306900395049705964146C4F30712D9
:1027B00004F00F03034801F0A1F908B0BDE8F08769
:1027C0001C300D40DBC5200070B500F085F8104CC2
:1027D000D4E9002390421946264638BF591C0024EC
:1027E00004430D46C6E900450A4ED6E90001801AA9
:1027F00061EB0301241845EB0105C6E9004501F032
:1028000067FE18B1BDE8704001F0F2BD70BD00BFB9
:10281000F8410020004200200F4B104A1A6053F884
:10282000042C42F0050243F8042C53F8042C42F027
:10283000020243F8042C0A4B1A6842F001021A60A3
:10284000084B00221A60042243F80C2C012243F8A2
:10285000082C0F22DA62704714E000E047E801001C
:1028600008200D400C000340034BD3E90023100A5D
:1028700040EA0360704700BFF8410020034BD3E9F2
:102880000023D00B40EA4340704700BF00420020C5
:10289000054B18601C3B1A6842F001021A601A6866
:1028A000D207FCD4704700BF2800034010B5064C87
:1028B000236823F001032360FFF786FF236843F0BA
:1028C0000103236010BD00BF10E000E0014B186859
:1028D000704700BF34420020064B1A68596808331D
:1028E0001B681B0443EA01231343034A106843EAAD
:1028F0000060704740500D404C500D4010B50446EC
:10290000114B1B68DB07FBD508F04BFAFFF7E4FF20
:10291000231A062BD8BFC41D0C4B220E1A60C4F319
:10292000074243F8042CC4F3072243F8082CE2B210
:1029300043F80C2C08F031FA054B91201C60BDE8DF
:10294000104000F06BB900BF50500D404C500D408E
:102950003442002008B500F0F3FF064B002291201E
:102960001A6000F077F9912000F066F9BDE80840A0
:1029700001F0FEBE344200200023084A1068084AD5
:102980009958084205D01A44D268906910F0800026
:1029900003D02C33582BF0D10120704728200D4054
:1029A000B0C3200038B5164B2C2202FB0033DC6884
:1029B0004FF6BF72236C62649BB213F0500205465F
:1029C0000DD0A369DB0609D40E4B53F825301BB19B
:1029D0002068C0B29847F4E72368F2E738BD13F4E3
:1029E000D06F0BD04FF440732363FF236360E36A1F
:1029F000E262E362236B43F00103236338BD00BF4F
:102A0000B0C3200038420020012870B500F2B18028
:102A10002C254543574E741994F92030002BC0F2F1
:102A2000A88094F92230002BC0F2A380524800F015
:102A3000F9FF524B7259196800250A431A60596808
:102A400062680A435A609968A2680A439A60E36818
:102A5000C3F8C85F94F9201094F92120236902EB90
:102A6000C1021A6094F8220094F82310227D00F02D
:102A7000A3F994F8220094F82310082200F092F9A8
:102A800094F92300012101FA00F094F922203C4B33
:102A90001203D6583043D05094F9210094F92020E5
:102AA00001FA00F01203D6583043D050E2685020AB
:102AB0009063E268906B40F4D0609063E26802201B
:102AC0005063E2684FF440701063E268A06950629E
:102AD000E268E0699062E2687020D06294F9242094
:102AE000AA421ADB94F9250040EAC2022548026096
:102AF00094F9256094F92420B1401203D058014381
:102B0000D15094F824002A4694F8251000F04AF990
:102B10001D4B1A6842F400421A6094F8260002061F
:102B20001CD494F82710012200F046F994F92710DC
:102B3000012505FA01F194F92620114B1203D05812
:102B40000143D15094F82600082294F8271000F091
:102B500029F90D4B1A6842F480421A60E3681A6B37
:102B600042F001021A6394F82800BDE8704000F0BA
:102B700055B870BDB0C320007929200028200D4031
:102B800020940D4004410D4030D0004001289CBFEE
:102B9000014B43F82010704738420020012808D824
:102BA000044B2C2202FB0030C3689A699006FCD4C7
:102BB00019607047B0C32000014B00221A607047B3
:102BC00000500D40014B08221A60704700500D4024
:102BD000024BA0221A6050221A60704700500D402C
:102BE000074A084B1A60084B80321A60074B803244
:102BF0001A60074B80321A60064B074A1A6070470A
:102C000000E100E04C42002040420020444200200D
:102C10004842002008ED00E0002020004209012188
:102C200000F01F0001FA00F0024B1B6843F822007D
:102C3000704700BF4C4200204209012100F01F00F4
:102C400001FA00F0024B1B6843F82200704700BFF6
:102C5000404200204209012100F01F0001FA00F06B
:102C6000024B1B6843F82200704700BF4842002017
:102C7000024B1868C0F38150704700BF04200D401C
:102C800008B5FFF7F5FF024B53F8200008BD00BF61
:102C900008C42000054A064B1A60064B1A68064B0A
:102CA0001340B3F1807FF8D1704700BF01010201EA
:102CB00000200D4004200D4000000101034B04489A
:102CC0001B6803F007031841704700BF04200D4044
:102CD0000048E801034B04481B68C3F30223184172
:102CE000704700BF04200D400048E801024B02EB92
:102CF000C10243F82200704750420020F8B50A4E46
:102D000007460D4606EB4116002447FA04F3DB079D
:102D1000E1B204D556F824300BB128469847013467
:102D2000082CF2D1F8BD00BF504200202DE9F84335
:102D300005462C0300F004FE0D4E04F1804303F51C
:102D40005923D3F81894A359EF0023FA07F849EA56
:102D500008005FFA88F808FA07F7C0B22946FFF7BB
:102D6000CDFF044B5FFA89F21A51A751BDE8F883F1
:102D700018970D401C940D4002480021802207F056
:102D800087BF00BF50420020034A044B1A60044B27
:102D9000803A1A60704700BF80400D40D442002046
:102DA000D0420020034B01EBC0011B6843F82120F7
:102DB000704700BFD4420020034B01EBC0011B68E9
:102DC00043F82120704700BFD0420020024B1A6810
:102DD00042F030021A60704700700D400E2870B546
:102DE0000BD1154C236843F002052560134D2C6868
:102DF00024F03F0646F001062E60114D2E6826F0A5
:102E0000FF0632431143014329600E4A126812063D
:102E1000FBD50D4A0D491268096802F0FC0242EA2E
:102E2000012292B20E2892B203D104490C600249E9
:102E30000B6010B270BD00BF34000144F48608403E
:102E400008700D4000700D400C700D4010700D406A
:102E5000034B1868D0F1010038BF0020704700BF55
:102E600000B7084010B58F20064CFFF7F3FE8F2007
:102E7000FFF7E2FE206818B101F06CFC002323602C
:102E800010BD00BFD8420020064B1A6842F0020273
:102E90001A605A6842F002025A609A6842F00202CE
:102EA0009A60704748200D4007B50C4800F0BAFD05
:102EB000FFF7EAFF0A4B1A6842F002021A6000228A
:102EC0000192019A0F2A02DC019A0132F8E71A688E
:102ED00022F002021A6003B05DF804FB512E2000BC
:102EE00054200D40064B1A6822F002021A605A68FC
:102EF00022F002025A609A6822F002029A60704739
:102F000048200D40084B93F90020002A09DB074AAE
:102F1000ED2111601160E32111601A7862F07F02E7
:102F20001A700120704700BF925200203888084074
:102F30000B4B1A689207FBD41B685B0603D4094B42
:102F4000ED221A601A60084B1B6813B1054BEF2283
:102F50001A60064B01201A7802F07F021A7070473F
:102F60004C860840388808402C8608409252002041
:102F700038B5A0F10B05EBB20F2B044613D80B4B61
:102F80001B6813F03F0302D0FFF7D2FF0123052295
:102F90005543074A0B3515600BB1FFF7B3FF054BDF
:102FA000E0B21C7000E0FF2040B238BD4886084007
:102FB0003C860840EF41002010B50B4B1B6898067B
:102FC00003D1FFF79FFF012300E00023074A1268A7
:102FD000D107FBD5064A1468C4F300140BB1FFF700
:102FE000A7FF204610BD00BF488608406486084001
:102FF0004C860840054B186800F02200B0F1200C08
:10300000DCF1000050EB0C00704700BF4C8608401C
:10301000024B186800F04000704700BF4C86084023
:1030200038B50C46002900F08880102800F287800F
:10303000DFE800F0090F1A1C23394253586F7385DB
:1030400085787A7C7F003F4B1B68003318BF0123D3
:1030500070E03D4B05221B6803F07F030B3B93FBA5
:10306000F2F30B33DBB265E0384B00E0384B1A6803
:10307000043B1B6843EA02235CE000230B60354BF2
:10308000354A1B6803F001030B601268900644BFC9
:1030900043F002030B60314B1B78002B4BD00B68C5
:1030A00043F0040346E02E4B00201B780860002B01
:1030B00041D001230B6038BD2A4B19680023C9B2E7
:1030C000294A02EBC3000079884202D852F8333013
:1030D00030E001330E2BF3D128E0244B1B685BB2A8
:1030E000493B27E0224B1B68990603D1FFF70AFFF3
:1030F000012300E000231F4A1268D207FBD51E4AB5
:103100001568493DEDB20BB1FFF712FF6DB22560B6
:1031100011E01A4B93F900300CE0194B1B7803F0C7
:103120007F0307E00B2305E01A2303E06FF017038A
:1031300000E007232360002038BD022038BD0120B5
:1031400038BD00BF2C8608403C860840CC8508402E
:10315000D48508400086084024860840915200200B
:10316000EE4100204086084018C4200058860840E0
:1031700048860840648608406086084090520020D7
:103180008F52002038B505460C46134B1B689B0731
:10319000FBD4124B93F90030002B01DBFFF7B2FE9A
:1031A0000F4BEE221A60691E1A60A21C43F8102C05
:1031B0002144022000F052FB013C0A492401214332
:1031C000022000F05DFB022000F064FB022000F012
:1031D00079FB002038BD00BF4C8608409252002089
:1031E0003888084002C001C038B5234B93F900303D
:1031F000002B0CDBFFF770FB0446FFF783FEFFF7A5
:103200006BFB6FF009031B1BC342F8D401E00025E0
:1032100000E00125194B1B7823B9194B1B68980650
:1032200004D405E0FFF7C8FE0028F6D1022038BD1F
:10323000144BE9221A600424114B1A68910707D431
:10324000013C14F0FF0403D00620FFF721FBF3E755
:103250001B689A0705D40B4BEE221A6001241A60F2
:1032600004E0074B1C6814F00204FAD10DB1FFF71B
:103270005FFE204638BD00BF92520020EE41002084
:103280004C86084038880840044B1A6810B142F058
:10329000010201E022F001021A6070470086084036
:1032A0000B280CD1082A0CD159B1084B083111F860
:1032B000012D43F8042F064A9342F8D103E0012080
:1032C0007047022070470020704700BFA485084067
:1032D000C485084038B5354B1B6813F040034DD00A
:1032E000334B1A681506D4B203D5ED221A611A6160
:1032F00044E0042C3ED9023C8C423BDCE4B2032C7B
:1033000022D001190139032000F0B0FA631E2949C7
:103310001B010320194300F0B3FA032000F0BAFAAE
:10332000032000F0CFFA032000F0D8FA0028FAD1E9
:103330001F4B214A1968214D4939C9B211701B68C8
:1033400018062B7016D506E01A6802701A684270CB
:103350001B688370ECE749B289B2042006F01EFBBB
:103360002978032001F07F0106F018FB144B1B782D
:1033700033B114E0134BED221A601A60002038BDFF
:103380000A4B1A6852060AD51B681D0603D50E485B
:1033900001F0E0F903E00B4BED221A601A60094BD3
:1033A000ED221A601A60204638BD00BF4C860840E6
:1033B0002888084002C0010C905200208F52002043
:1033C00091520020388808405040002008B5054B35
:1033D0001B7813B9044801F0BDF9044B00221A60B0
:1033E00008BD00BF915200205040002034880840A2
:1033F000074B1A68042A1A4604D0064B197841F084
:103400004001197000231360034801F0A3B900BF05
:103410002C88084092520020504000202DE9F843AB
:10342000334934480B68DFF8DCC023F007030B6036
:103430000368DFF8D48043F008030360D8F8003055
:10344000DCF800400A68DFF8C4E022F070022A4F7E
:103450000A60DEF800203D68284EDBB2240243EA11
:103460000563A4B2234334685FFA82F943EA094949
:10347000E3B21D460B68002223F0070343F001036B
:103480000B60036842EA090443F008030360D8F8BC
:103490000080DCF800000B68000223F0700343F0AA
:1034A00010030B60DEF800303F685FFA88F1366881
:1034B00041EA076180B20143DBB241EA0343F1B262
:1034C0000F4642EA0306FFF707FA22462B46921BF5
:1034D00063EB0703D903804641EA5241D00300233E
:1034E000074A06F0DDFFC0EB0800BDE8F88300BF27
:1034F0001088084004880840208808401C8808403C
:103500000048E801188808401488084024880840CA
:103510000B2810B50C460CD1082A16D1A9B10C4BBA
:103520004C1E53F8042D04F8012F0A4A9342F8D197
:1035300007E00C2807D1042A07D131B1FFF76EFF4D
:103540002060002010BD012010BD022010BD00BF72
:10355000C8850840A8850840124B1B681B03FBD593
:10356000114B1A6842F002021A601A6842F0010216
:103570001A6019680C4A4807FBD5136823F0010349
:103580001360094B1A685107FBD41A6842F0020213
:103590001A601A6842F001021A601A685207FCD5D4
:1035A000704700BF04200D40048808400E4B10B542
:1035B00018700E4C78B1FFF7CFFF23688D2023F0F1
:1035C000040323600A4B1A6822F004021A60BDE863
:1035D0001040FFF731BB23688D2043F004032360C4
:1035E000BDE81040FFF71ABB915200208C860840BE
:1035F00034880840F8B5244D2E7816F0010641D1E4
:10360000224B01241C605C609C60214BF8221A60F4
:103610000922C3F89021152270331A601D4B0B222A
:103620001A601D4B40221A601A687F2742F0200260
:103630001A60D52243F81C6CDF62DA61174B1878E8
:10364000FFF796FC164B8E201F60FFF7E7FA02206B
:1036500000F02CF91349022000F008F9032000F0D3
:1036600025F91049032000F0F9F80F4B1878FFF7FF
:103670009DFF0E48314601F055F82B782046234334
:103680002B70F8BD0020F8BD92520020A8200D40FC
:103690005886084004600D4024860840EF41002011
:1036A000948608402888084091520020504000200D
:1036B00038B503880446CBB140F20742934203D0A9
:1036C00000230380032038BD194B18781A4628B10F
:1036D0001B7873B1174B1B7858060AD5822908D17D
:1036E000137843B1134B1A78510614D440F20743B0
:1036F0002380012038BD06F0F7F806F08BF8802112
:10370000FFF7E8FD0028EDDD80B206F067F80A4B10
:103710001B699847E6E700221A70084B1D68FFF7FF
:1037200007FCFFF767FFAA06E0D0FFF7EBFBDDE73A
:10373000915200209252002014C520004886084073
:1037400010B50C4607285DD8DFE800F0040F1C20F8
:10375000273D4357012902D1FFF7D4FB56E000294A
:1037600052D1FFF7E5FB204610BDA1F10B030F2B53
:103770004AD8C8B2FFF7FCFBB0F1FF3F0CBF0320F3
:10378000002010BD8CB2E2B2214B02E08CB2214B82
:10379000E2B2240A1A605C6038E031F0070333D1EA
:1037A00001F00100FFF770FD1B4B14F0020F1A68C7
:1037B000C4F3800014BF42F0200222F020021A60FD
:1037C000FFF7F4FE22E031F001001DD1134B197018
:1037D00010BD01F118031F2B16D80D23104AD80075
:1037E00052F833108C4204DC024412790D4B1A60FB
:1037F0000CE013F1FF33F1D208E0CCB20A4B4934AC
:103800001C6003E0012010BD022010BD002010BD8F
:10381000C8850840D085084024860840EE41002035
:1038200018C42000408608405886084010B5094C4E
:1038300000212046402207F02BFA074B01221A6094
:103840002E205C60FFF7EAF9BDE810402F20FFF75B
:10385000E5B900BF0040002004F00F40032802D863
:10386000014B00011950704700400020032803D885
:10387000024B03EB00104160704700BF0040002086
:10388000032803D8024B03EB00108160704700BF90
:1038900000400020032806D8012101FA00F0024B65
:1038A0001A6810431860704728F00F40032806D8A4
:1038B000012101FA00F0024B1A68104318607047AA
:1038C00020F00F40032806D8012101FA00F0024B36
:1038D0001A6810431860704714F00F40032806D888
:1038E000044B03EB0010806800F0070070470020D5
:1038F000704700BF00400020024B4FF0FF321A60BB
:10390000704700BF04F50F40014B01221A60704759
:103910004CF00F40094B1A68194612F4801FF9D178
:10392000043B1A6822F480321A600A68D203FCD47D
:103930001A6842F400321A60704700BF04200D403C
:1039400008B5094B1B689B070DD0084B1A6850013E
:10395000FBD41A685101FCD5FEF7A8FFFFF7DAFF88
:10396000014B00221A6008BD58200D4004200D4074
:1039700038B5264B1C6814F03F0413D1244BE35890
:1039800023B1984770B10434142CF7D1214B1A7825
:103990001D463AB1FEF79AFF0446FEF79DFF201A36
:1039A000092801D830BF38BD002CFBD01A4B1A684B
:1039B00022F400321A60194A1168C802FBD419684F
:1039C00041F4803119601368D903FCD5FEF784FFF8
:1039D000201A092803D8BDE83840FFF79BBF6328A9
:1039E0000F4A02D92B78022B00D00123136000F07C
:1039F00067FE28B1FFF78EFF094B00221A6038BD21
:103A0000FEF764FF0028CDD1F4E700BF48860840E8
:103A1000DC4200209352002000200D4004200D4085
:103A200058200D400023064A52F82310814206D048
:103A300011B942F8230070470133052BF3D17047C9
:103A4000DC420020054B00221A60054B1A6842F048
:103A500004021A60034B02221A70704758200D406E
:103A600010ED00E09352002010B59020064CFFF7B7
:103A7000F1F89020FFF7E0F8206818B100F06AFE36
:103A80000023236010BD00BFF042002030B5184B6A
:103A90001B783BB9174A1278122A03D1164A1278BA
:103AA0004B2A01D0002317E04A08934207DA02F5B7
:103AB0002014E41A94F82740C4540133F5E7002396
:103AC000934208DA01F52014E41A94F82750841878
:103AD000E5540133F4E730BD8B4207DA01F52012DB
:103AE000D21A92F82720C2540133F5E730BD00BF47
:103AF0002B0028002A002800290028000FB407B551
:103B000004AA52F8041B0448019200F01FF803B005
:103B10005DF804EB04B070476040002038B50546FE
:103B20000C46102C07D92B68686807491022984763
:103B300048B9103CF5E72CB12B6868680249224669
:103B4000984738BD204638BDFBC620002DE9F04F10
:103B500091B0044608910992002508980378002B3B
:103B600000F04F8303461E4613F8012B1AB908983C
:103B7000864203D10CE0252AF5D1F8E7089923689D
:103B8000771A60683A469847002840F01E833D4403
:103B90003378002B00F035837378002B00F03183ED
:103BA00001364FF0000C324616F8013B2B2B11D09A
:103BB00006D8202B11D0232B12D14CF0080CF2E7A1
:103BC0002D2B04D0302B0BD14CF0100CEBE74CF02C
:103BD000010CE8E74CF0060CE5E74CF0020CE2E7DC
:103BE000A3F13101C9B2082910D813464FF00008DB
:103BF0001A4613F8011BA1F13000C0B2092814D8ED
:103C00000A2202FB0818A8F13008F1E72A2B0AD192
:103C1000099B0132191D1B680991002BB8BF4CF09C
:103C2000010C984601E04FF0000813782E2B1FD1AD
:103C30005178531CA1F13000C0B2092810D81946A0
:103C400000260A780B46A2F13000C0B2092801F123
:103C5000010110D84FF00A0A0AFB0626303EF0E7B1
:103C60002A2906D1931C099A111D0991166802E0B0
:103C700013464FF0FF361A786C2A09D15A786C2A0D
:103C800002D14CF0800C0AE001334CF0600C0BE0E8
:103C9000682A09D15A78682A03D14CF0200C0233E3
:103CA00002E001334CF0400C1A78642A3CD01FD853
:103CB000462A48D00DD8252A5AD003D8002A00F029
:103CC000A08257E0412A4AD0452A08BF4CF4424C12
:103CD00050E0582A31D004D8472A08BF4CF4A13C00
:103CE00048E0612A38D0632A08BF4CF4A06C41E058
:103CF0006E2A3AD007D8662A22D027D3672A28D03E
:103D0000692A11D036E0732A2CD006D86F2A11D038
:103D1000702A08BF4CF4407C2CE0752A07D0782A22
:103D200008BF4CF4C85C25E04CF4245C22E04CF461
:103D3000106C1FE04CF4885C1CE04CF4B24C19E0B1
:103D40004CF4007C16E04CF4844C13E04CF4024C30
:103D500010E04CF4813C0DE04CF4C13C0AE04CF422
:103D6000E13C07E04CF4806C04E04CF4E06C01E0D2
:103D70004CF4C06C013308930CF4E063B3F5806F2E
:103D800000F0968114D8B3F5807F27D0B3F5407F3B
:103D90007FF4E3AE099BA349A34F1A1D1CF4804F87
:103DA000099218BF0F461A680DF13B010023B2E1DA
:103DB000B3F5C06F08D0B3F5E06F00F01C82B3F527
:103DC000A06F7FF4CAAEEAE12368606897490122D8
:103DD0009847002840F0F9810135BEE6002EACBFBF
:103DE0002CF0100C01261CF4005205920CF0E0039C
:103DF00037D0402B17D008D8DBB1202B2AD1099B14
:103E00001A1D099293F9002017E0602B11D0802B26
:103E100020D1099B073323F0070303F1080209921D
:103E2000D3E900230AE0099B1A1D0992B3F9002087
:103E300003E0099B1A1D09921A68D317002A73F12F
:103E4000000009DA504263EB4301CDE902014FF073
:103E5000010934E000220023CDE902234FF00009DC
:103E60002DE0402B16D007D8D3B1202B21D1099BB0
:103E70001A1D0992187811E0602B11D0802B18D1EF
:103E8000099B073323F0070303F108020992D3E9E2
:103E900000010BE0099B1A1D18880992002105E01A
:103EA000099B1A1D09921B681846F7E7CDE9020124
:103EB000D4E700220023CDE902234FF000090CF4DF
:103EC000C053B3F5805F0CD0B3F5C05F39D0B3F504
:103ED000006F56D1DDE902230DF13E07CDE906233F
:103EE00004E00DF13E01DDE902231AE0DDE90601FF
:103EF0000143BB4640D0DDE906010A220023CDF88C
:103F000004C006F0CDFADDE90601303207F8012DD4
:103F100000230A2206F0C4FADDF804C0CDE9060148
:103F2000E4E752EA03008B4626D002F00700303067
:103F300001F8010DD00840EA4370DF0802463B4615
:103F4000EFE7384B384F1CF4804F0DF13E0118BF9E
:103F50001F46DDE9022352EA03008B460CD002F033
:103F60000F00385C4FEA131E01F8010D100940EAFA
:103F7000037002467346EEE70DF13E07CBEB0707F1
:103F800002E00DF13E0B002741F60803BE420CEAA9
:103F9000030341F208028CBFC7EB060A4FF0000A88
:103FA000934204D1BAF1000F08BF4FF0010A41F665
:103FB000080293420AEB07000CD1DDE90223134308
:103FC00008D01B4B1B4A1CF4804F4FF0020618BF51
:103FD0001A4601E000263246059991B1B9F1000F69
:103FE0000DD10CF00601022906D0134B062908BF9B
:103FF000012608BF1A4604E00126104A01E0104AD3
:104000000126831998458CBFC3EB08084FF00008C0
:104010001CF001091FD11CF0100F13D0C244C84678
:1040200019E000BFC6C62000D7C62000F9C6200090
:10403000EBC62000E8C62000F0C62000B6C5200070
:10404000EEC62000204641460192FFF767FD019A27
:10405000002840F0BA803EB11146236860683246BD
:104060009847002840F0B1805346102BD4F800C088
:104070000AD90193606865491022E047019B002836
:1040800040F0A380103BF0E733B160685F491A4607
:10409000E047002840F099802368606859463A4616
:1040A0009847002840F091803D44354455446DE0E8
:1040B000099BD3F800901A1D0992B9F1000F08D09E
:1040C0004B461F463A780133002AFAD1C9EB07075D
:1040D00002E0DFF83C910627002E02DBB74228BF42
:1040E0003746B8458CBFC7EB08084FF000081CF0F6
:1040F000010605D120464146FFF710FD002864D196
:104100002368606849463A46984700285DD13D4497
:10411000002E6ED03DE052EA03000E460BD002F0B6
:104120000F00385C1E0901F8010D100940EA037008
:1041300002463346EFE70DF13B077F1A04D13023E7
:104140004E1E01F8013C012778230337B84506F8D5
:10415000013C4FF0300306F8023C88BFC7EB08086B
:104160004FF0230398BF4FF000081CF0010906F838
:10417000033C04D120464146FFF7D0FC28BB23680E
:104180006068F11E3A469847F8B93D44B9F1000F0E
:104190002FD020464146FFF7C1FC50B315E0099BE4
:1041A000B8F1010F03F104021B688CBF08F1FF385E
:1041B0004FF000081CF0010609928DF8283008D154
:1041C00020464146FFF7AAFC10B14FF0FF3019E03E
:1041D0004544236860680AA9012298470028F4D161
:1041E0002EB120464146FFF799FC0028EDD108F199
:1041F00001084544B1E4099B1A1D1B6809921D6022
:10420000ABE4284611B0BDE8F08F00BF0BC720001B
:10421000F2C62000F8B50388054616462BB14A2B96
:1042200015D0002303800320F8BD174806F09BFE3D
:1042300004462CB1201DA16806F03FFE2468F8E773
:10424000124B01221A704A232B800120F8BD8829C5
:10425000FBD10D4806F087FE0446002CF3D0231D49
:104260009E420ED10848214606F086FE084B626940
:104270001F681A60A2691E460AB1E069904737605C
:10428000E1E72468E9E700BFF442002094520020EF
:104290000043002010B5064B002406481C7006F0B1
:1042A0005FFE21460448BDE8104000F03BBA00BF65
:1042B00094520020F44200206840002070B504466B
:1042C000E3610B4B04981B786061A26143B1094D17
:1042D000094B2E68201D2B6006F0EFFD2E6000E0DC
:1042E000A16021460548BDE8704006F059BE00BFF8
:1042F000945200200043002068400020F442002037
:1043000013B5034C24680094FFF7D8FF02B010BD2A
:104310000043002070B5094B05461B783BB1084CA3
:10432000084B26680430236006F0D0FD266029463D
:104330000548BDE8704006F033BE00BF945200202F
:104340000043002068400020F442002070B5094B73
:1043500005461B783BB1084C084B266804302360A7
:1043600006F0BDFD266029460548BDE8704006F010
:1043700017BE00BF94520020004300206840002078
:10438000F442002010B5084B04461B781BB10430E2
:1043900000F0A6F801E0C360036121460348BDE8D0
:1043A000104006F0E9BD00BF94520020F442002006
:1043B00010B50D4C236813B90C4A136010BDFEF7FD
:1043C00053FA236893E806000A44121A9B683BB12B
:1043D00093E812002144091A8A4228BF0A46F5E7E9
:1043E000024B1044186010BDF8420020FC4200202F
:1043F000014800F0AFB900BF78400020F8B503884D
:1044000005462BB1592B09D0002303800320F8BDAA
:104410001E4A136059232B800120F8BD872920D024
:104420008229F7D1194F00263C68002CF2D0204693
:1044300006F088FD90B1E0688821224600F04AF934
:1044400050B9E060A3680EB1B36000E03B600023A8
:10445000A360FFF7ADFFE5E7FFF7CAFF2646A468B4
:10446000E3E70A490B680BB90B60D3E7D8689042C1
:1044700001D19B68F7E70B6099680029CAD0C8682A
:1044800090420ABF89680B469960F5E7F842002020
:1044900010B50446FFF7ACFFE3680B4A4BB1136855
:1044A0003BB1A34203D1094A1268DA6007E09B6876
:1044B000F6E7064B1B68E36013681460A360BDE871
:1044C0001040FFF775BF00BFF842002000430020F6
:1044D000024B1868003018BF01207047F8420020D6
:1044E00010B50B4A04461368984206D183681360DE
:1044F00008E09A68A24203D01346002BF9D103E0EA
:10450000A2689A60FFF754FF0023A360E36010BD28
:10451000F842002038B5836804460D469BB10A482E
:1045200004600220A07304F10C00984702380128AF
:1045300001D9832D05D120462146BDE8384000F041
:1045400005B80123A37338BD004300202DE9F843CB
:104550001D4A1E4E15683768044689462B4690460C
:10456000A34204D00BB11B68FAE7BDE8F88344B35B
:10457000A37BABB10023A37345B1AC4204D0284662
:104580008721224606F0BDFC2D68F5E7A3683BB104
:104590004C4505D0346004F10C0083212A4698472D
:1045A000D8F800309C4209D12268074B00E022680D
:1045B0001A6005E01A68A242F9D01346002BF9D11F
:1045C0003760BDE8F88300BF0443002000430020AB
:1045D00010B5094B00221A70084B1C685CB1E37BD4
:1045E0003BB101230022A373E27320468221FFF72F
:1045F00091FF2468F2E710BD975200200443002089
:10460000024B1878421C1A70704700BF9852002065
:10461000064B8A221A70064A00231370054A13704B
:10462000054A1360054A1360704700BF9852002086
:1046300095520020965200200443002000430020A1
:104640002DE9F041194F3B780BB1FFF7C1FF184E30
:10465000337833B3174A0C241178174D4C4328197B
:10466000D0F804800131806801F01F01013B2D5D0D
:104670001170337068B9114B1C6894B13B780BB161
:10468000FFF7A6FF20462946424606F03AFC24687A
:10469000F3E7812D04BF012383732946424606F0C8
:1046A00030FC3B7830781844BDE8F0819752002008
:1046B0009652002095520020084300200443002019
:1046C000024A034B10781B7818447047965200201A
:1046D00097520020F0B50B4C2378202B0FD00A4DB9
:1046E0000A4F2E780C251E4406F01F066E43013338
:1046F000BD19B9552370A8606A600020F0BD012083
:10470000F0BD00BF965200209552002008430020C3
:1047100038B5034C256806F0F4FB256038BD00BFB2
:104720000043002030B50A4D0A462C6823468342D8
:104730000DD00BB11B68FAE748B104600121286075
:10474000817383818121BDE83040FFF7E1BF30BD37
:104750000443002040B1837B013BDBB2012B03D833
:10476000024A0123C3731370704700BF97520020A1
:1047700010B5084C206858B1002323608168436855
:104780009847236823B11868BDE81040FEF7B6B813
:1047900010BD00BF8844002010B50446FEF76EF837
:1047A00094E80C001344034AC01A90428CBF0020C6
:1047B000012010BDFEFFFF7F38B505880446672D38
:1047C00009D0792D2ED0002D32D1FFF719FF1B4BC8
:1047D00018701B4B1D601B4806F074FC431C01D174
:1047E00067231DE00A28164B07D01A687E2AF2DCE0
:1047F000511C1960144B9854EDE7196800254A1CA8
:104800001A60114A0D4B555428461978FFF762FF7C
:104810000E4B852118682A46FFF75CFF20B97923E3
:10482000238009E0852907D1054B00221A60D2E7D1
:1048300000230380032038BD012038BD77610020AC
:10484000944400208C4400201A5300200043002090
:104850000D2810B5014615D00B4C23782BB90B4809
:1048600006F01DFC48B9012306E00A2805D10748D7
:1048700006F015FC08B1002323700548FFF76AFF16
:10488000012010BD002010BD995200208C44002052
:104890008840002008B505480549802206F0F8FB4D
:1048A000BDE8084003480021FFF73CBF8C440020CE
:1048B0009A52002088400020064B1A68143342F0B8
:1048C000040243F8142C044A1B68106843EA0020D1
:1048D00080B2704700700D4018700D40174B1A6879
:1048E00022F00C021A60164B01221A601A68012A83
:1048F000FCD1144B08221A60E322C3F81422124B95
:104900001B68DB07FBD500231A46104901320968F2
:10491000102A01F0010143EA01034FEA43039BB26D
:10492000F3D1002BF0D00A4A190A03F0FE031160FC
:104930001360084BEF221A60704700BF00700D40F3
:10494000A8200D4024860840648608409C860840C4
:1049500014700D403888084070B505880446772DDE
:1049600030D07E2D40D0002D4ED1FFF749FE294B8F
:104970001870294B1D601E463368284A264D52F890
:1049800023204AB126480021C154936880209847CB
:104990002A6801322A60EFE7224A1370772321E068
:1049A0001F4AD256002A13DB1B4B1A6801321A60C9
:1049B000194B1C4A1B6812789342F1DB1A4B1B6897
:1049C000002BEBD0184A00231360134A1360EFE763
:1049D000104A00201178114A52F82320FFF77AFE7E
:1049E00030B97E23238013E00A4B1B788B420FD112
:1049F000094B0B4A1B68D15C01F07F01D1540A4B73
:104A00001A6801321A60CFE700230380032070BDCB
:104A1000012070BD786100209844002040400020B3
:104A2000736100209A5300209C440020094B1A789F
:104A30000023934204DA084951F82310814207D138
:104A4000064A0748D15C61F07F01D154FFF782BE6E
:104A50000133EEE79A5300204040002073610020AC
:104A6000984000200C4BB82202FB0032002330B5E6
:104A700053821A46094CE1188D782DB11C5D844291
:104A800002D100248C700132713340F24C518B42C0
:104A9000F0D1104630BD00BFBC440020A65300201A
:104AA00008B5064802F07AFE054B01221A70FD2176
:104AB00000225A709970DA7008BD00BFDD4C2000EA
:104AC0009C53002010B513780C7A83F002039C42AB
:104AD0001DD14C7A53789C4219D18C7A93789C42A0
:104AE00015D1CC7AD3789C4211D10C7B13799C429E
:104AF0000DD14C7B53799C4209D18C7B93799C429C
:104B000005D1CC7BD3799C4201D103231BE00A89D8
:104B10000F4B6AB94A89B2F57F4F09D18A89FE2ABB
:104B200006D11A68C98922F8021B1A6002230AE01A
:104B30001A6851F8084F083242F8084C4C6842F89D
:104B4000044C1A60012303FA00F0C0B210BD00BF8C
:104B5000A844002010B50F4C0220A17904F01EFFDC
:104B6000A3792246112B05D1138D518D9942A8BFEF
:104B700019460AE0062BF7D03A2B05BF94F8281007
:104B800094F82930002143EA01210120BDE81040BA
:104B900004F004BF085A002010B5074C01462378E2
:104BA000012B01D0002010BDA01C082205F060FFE1
:104BB0000028F7D1204610BD9C53002008B50146BF
:104BC000102004F0F9FE044B04489B68002198472C
:104BD000BDE80840FDF7FCBF34C52000E14B2000D4
:104BE00010B508460C46114602F0A8F9044B1B68A4
:104BF00013B19B6820469847024B1C6010BD00BF54
:104C0000B8440020B4440020F8B507460023114AF8
:104C1000712404FB0324A278B2B9617004F0E8FDAA
:104C20000D4E0E4A33782546C01AA07005F8037B56
:104C300017681F4404F0DCFD32783946821A284692
:104C400005F04AFFA078F8BD01330C2BDFD14FF0FF
:104C5000FF30F8BDA6530020F2580020AC440020DD
:104C60002DE9F041140902F00F050F2C08BF1024A4
:104C700006461F460F2D08BF102514B1224605F029
:104C80002BFF62190F2A05DC30190021C2F1100236
:104C900005F0FEFFBDB1DFF84080C5F11000D8F887
:104CA0000070304439462A4605F016FF022D43466F
:104CB00005D10A2C03D8FF22F272FE2232733D4442
:104CC0001D60BDE8F0812CB130463946BDE8F041A9
:104CD00006F060BABDE8F081A84400202DE9F04F4D
:104CE0008C4E8D4D002387B033702B70044604F03A
:104CF000FBFD04F08FFD894A894B126818600AB1E8
:104D0000FFF728FF04AB039314B91846854901E067
:104D100004A8214607F0D2F8834B844E1B883E2B13
:104D200040F2F9817E497C4AD1F80090804D92F89A
:104D300000B009F102032B600BF1020B002309F80C
:104D40000B3006F11800FFF727FF20B906F1080025
:104D5000FFF722FF20B109F103032B60802400E05C
:104D6000044673783078190941EA0011C9B28A08FB
:104D700042EA8111C9B213F00F0FCAB2DFF8B08155
:104D800000F00F000ED1694F7F885FB910B913F0A2
:104D9000F00F20D0D8F80030702703F8012BC8F8A6
:104DA000003019E078B913F0F00F0CD12A6821F027
:104DB0003F010B4313705F4B03321B88682722F8B7
:104DC000023C2A6008E02B6830686027186003F80E
:104DD000042B2B6000E07827B279112A08BF47F036
:104DE00004077B0705D4D8F8003003F8012BC8F876
:104DF0000030F379402B06D0FF2B07D0012B08D1D0
:104E000047F001070BE047F0020708E047F003070F
:104E100005E0D8F8002002F8013BC8F800203289EC
:104E2000424B8AB95A897AB99A896AB9DA895AB9E0
:104E30001A8A4AB95A8A3AB99A8A2AB9DB8A1BB9B4
:104E400044F04004E4B23CE03B48FFF7A5FE3B4B96
:104E5000186070B1427819F80B30042043EA02134D
:104E600009F80B303449364AFFF72CFE60F03F005A
:104E700011E0328948F2FE039A422C490DD14B8B46
:104E80005BB98B8B4BB9CB8B3BB9042008312C4AD7
:104E9000FFF718FE2043C4B213E0D8F800C0DFF8D3
:104EA00098E062460EF1100A734603CB534510603A
:104EB00051609E4602F10802F6D11D4B0CF1100222
:104EC0001A60337E1949FF2BDFF864A040F085801B
:104ED0004A7E44F0080E022A5FFA8EFE32D14B8BD6
:104EE00083BB8B8B73BBCB8B63BB0B8C53BB4B8C50
:104EF00043BB8B8C33BB91F826301BBBD8F80030FA
:104F000091F8272044F00B0403F8012BE4B2C8F811
:104F100000309CE09B530020F2580020B844002051
:104F2000AC440020A0C72000F4590020085A0020FB
:104F3000A84400200A5A0020105A0020A044002053
:104F4000005A0020718B974B002931D1998B79BB86
:104F5000D98B69BB198CA1B9598C91B993F82410DC
:104F600079B9296844F00A04084600F8012B33F89F
:104F7000252F043121F8032C9B78E4B2837029603B
:104F800065E0338C87489BB990F8223083B92B6851
:104F900044F00904194601F8012B024652F8230F88
:104FA000063343F8050C1279E4B20A712B604EE027
:104FB000DAF800C07C4C624604F11008234603CBAB
:104FC0004345106051601C4602F10802F6D10CF115
:104FD0001003CAF80030744639E001F1180002915C
:104FE000FFF7DAFD714A1060029950B1437819F861
:104FF0000B2044F004041343E4B209F80B30002002
:105000000AE00A8B48F2FE039A420CD14B8B53B94B
:105010008B8B43B9CB8B33B9183104AAFFF752FD00
:105020002043C4B213E0DAF800C0DFF87CE1624646
:105030000EF11008734603CB4345106051609E4645
:1050400002F10802F6D15A4B0CF110021A605949CC
:1050500028230B70B379534A112B51D1118D4FF284
:10506000B00349BA89B221F00F0080B2984216D13C
:10507000538D5BBA23F00F031B041B0C83420ED12C
:105080002B68F3211970518D128D090A120A01EB58
:10509000021202F5AA625A7002332B6027E0728D69
:1050A000404B52BA02F47F42B2F5704F09D12A68E0
:1050B000F1211170198DA2F801105B8D1B0AD370BC
:1050C0000CE001F47F41B1F5704F2A6808D1F2215C
:1050D0001170198D090A51705B8D5380043205E0FF
:1050E000F0211170986A053242F8040C2A60324BA4
:1050F0001A882B6823F8022B2E4A2B60302313705A
:105100002E490B682E490A789F541A445470DAF8D5
:105110000020D31A1AE0294A294913680D78412240
:105120001A706A1CD2B234461A4406F12807234684
:1051300003CBBB42106051601C4602F10802F6D15D
:105140001C491F4A0B7829351570283310200B7025
:105150000DEB000104F030FC1A4BDFF858A01B687F
:105160009847194D164F524630EA200028BF1520A7
:105170002B88147897F800B0C0F17D081A1BCBEB90
:1051800008018A4240F3C980C0F17809019304F014
:105190003DFC019B93FBF9F30133984216DC0020A0
:1051A000CCE000BF085A0020205A0020A044002074
:1051B000A84400209B530020365A0020AC44002015
:1051C000F258002008C52000F45900205D495E4BCC
:1051D0000C683E7800221A6021463246201D019359
:1051E00005F0F0FC2A8859496FEA82426FEA924240
:1051F000C2F3072222702A88043662700A88F6B247
:10520000501C0880110ADFF84CC1A170C6EB0808D9
:105210009AF8001028F00708DFF83CB1E270A019F6
:10522000614442463E70CBF80080CDF808C005F0DE
:1052300053FC06EB080080B204F0D0FA04F0ECFB5B
:10524000019B04461E460028A9D00DF110084046D7
:10525000FFF7B4FC204604F017FC204604F0FEFBE8
:105260003368012B9BD0043B012B98D99AF800A0FE
:10527000DBF8003053441FFA83FA05233B70314BAF
:105280001A682B886FEAC3436FEAD343C3F307233B
:1052900013702B88537029F00703CBF800302C4B88
:1052A0001B889A4549D22749CAEB03030A684FEA8B
:1052B000DA011171DBF8002026499342B8BF264A73
:1052C0005144B8BF13601F4B244ADBF800501778D5
:1052D00018682A46384405F0FFFB781980B204F0BC
:1052E0007DFA04F099FB054600283FF458AF40468C
:1052F000FFF764FC284604F0C7FB284604F0AEFB29
:10530000154B1B689A4433681FFA8AFA012B3FF445
:1053100046AF043B012BC2D841E70A49086831195E
:10532000584405F0D9FB2B889B44C4EB0B0080B29A
:1053300004F054FA04A8FFF741FC012007B0BDE8CF
:10534000F08F00BFAC440020B44400205C4E00202D
:10535000F4590020085A0020B0440020F2580020E0
:105360002DE9F047804689461746002A49D0404D2E
:105370000024AA462B8A434516D16B8AA3B10F207D
:1053800004F026FB0146284606F09DFD60B15FFA59
:1053900084F948463946FFF737FC002827DA4FF0F2
:1053A0000008344E45460CE00134022C05F1B805E6
:1053B0005AD0DFE7A54209D10135022D06F1B80622
:1053C0000ED036F8063C002BF6D0F3E7304605F059
:1053D000B9FD0028F0D0E8B2FFF744FB8044EBE7CA
:1053E000B8F1000F40DD48463946FFF70DFC0028B4
:1053F0003ADDB82303FB04A4A38A1844A0824846DC
:1054000033E01C4DFF26144635F8063C33B12846E0
:1054100005F098FD10B1E0B2FFF724FB73B2013341
:1054200003D135F8063C03B9E6B20134022C05F18C
:10543000B805E9D173B25A1C16D0B8275F430C4D9A
:105440000F20EC19A4F81290A4F8108004F0C0FA10
:105450000146204606F032FD07F11800284440219D
:1054600005F05EFD304600E0FF2040B2BDE8F08769
:10547000BC440020D44400202DE9F04F0F2087B019
:10548000AD4DAE4E04F0A4FA4FF0000A03F0CEFF8B
:1054900085F800A086F800A004F0BCF9A84CA94645
:1054A0002060042004F082FAA64B216800B2186044
:1054B00091F801800B78B34648EA032803F0F8031B
:1054C000C02B254602D0E02B1CD03FE099F80020ED
:1054D0008878CB78C8F30A0804321FFA88F889F86C
:1054E000002043EA002041465246FFF739FF441CA2
:1054F000074600F07B82944BB82404FB003401265D
:10550000223427E00B79CA78887899F80010C8F31C
:105510000A0805311FFA88F889F8001042EA0020CD
:1055200041461A460293FFF71BFF07460130029BD4
:1055300000F05C82844AB82101FB0722958A01268B
:10554000454534BF002501255446DEE17F4C5746D2
:105550005646D046286899F80010435C03F0E002F4
:10556000602A40F0B58101F1020E01444D78864475
:105570005FFA85FC1CF0800F754A18BF0EF101011F
:10558000C2F800E018BF116013F0100F03F008011B
:1055900030D1D1B91168084630F801EFA4F801E024
:1055A0008078E07011F8040B1160820802F00F019E
:1055B00041F060012170617802F0300242EA80100F
:1055C00001F00F010843607030E010686021217025
:1055D000014611F801EB03304FEA9E0A0AF0300A47
:1055E0000EF00F0E4AEA0E0E84F801E009881060F2
:1055F00061801BE001F0FF0E99B911680878C0F3D3
:10560000830040F06000207011F8010BA4F802E064
:105610004FEA900A0AF0300A4AEA8010607011607E
:1056200004E06022227000226270628003F00402B3
:1056300002F0FF0103912AB945490A6812F8010BEB
:10564000A0710A6013F0030303D0424AD35CE371F4
:1056500005E03F4A136813F8011BE1711360690606
:10566000C5F3011235D51CF0800F07D0344999F8E5
:10567000003009680B449878000900E0002002F02F
:10568000FF0132B904F1080AB1B1334B1968023194
:1056900012E0324B93F800E0BEF1010F01D000237D
:1056A00003E093F801E08645F9D12B480360002B15
:1056B000E8D1B2461D4627E1294B0F209A5C0291A2
:1056C0000192CDF800C004F083F9029903465046D8
:1056D0000BE0244B0F209A5CCDF800C0019204F03F
:1056E00077F92149034604F10800019AFFF7B8FA57
:1056F00005F0080105F00303DDF800C001F0FF022A
:1057000005F00405002935D0002D65D1174A12880F
:10571000ADF814205A1ED2B2012A06D80C490A68E4
:1057200012F8010B8DF815000A60114A04F11800F7
:10573000D25C05A900234DE0F25800209B530020C5
:10574000AC440020A4440020BC440020085A00209F
:10575000A84400204EC72000A04400209C530020F5
:1057600067C7200052C7200056C720004CC7200042
:1057700058C7200025B31CF0800F07D09D4999F829
:10578000002009680A44927802F00F029A4D2978A5
:10579000012901D0002502E069789142FAD1974AA7
:1057A0001560002D00F0AC80954A1020D25C01926B
:1057B00004F00EF9A91C0346019A04F1180009E04F
:1057C000904A1020D55C04F003F98F4903462A461D
:1057D00004F11800FFF744FA9BF800108B4A01F11E
:1057E00028038BF80030039B002B53D013681878E4
:1057F00000F0F800F0284DD11120A071187800F0C9
:10580000040500F0F300F038EDB203287AD8DFE8A1
:1058100000F0020A1622B3F801000533208533F8A0
:10582000020C60852CE0B3F801002085D878A0F543
:10583000805080B2000240F0F000608509E05878A6
:10584000A0F5805080B2000240F0F000208558881A
:105850006085043314E0587802330009A0F57560C0
:1058600080B2000240F0F000208513F8010C00F037
:105870000F00A0F5756080B2000240F0F000608576
:10588000136025B9136833F8020BE08513603031DB
:105890008BF80010574B12681B68D31A89F8003038
:1058A000B8F1000F09D103F0A3FF594B9BF800207A
:1058B0001B78C01A8318283B01E0A8F128031A12AC
:1058C0006371A3792271112B1CD1A388A38519E0E0
:1058D000412B40F08B804B1CDBB2184400F12802B6
:1058E000234650F8045B904243F8045BF9D19BF8DF
:1058F00000302931283389F800108BF8003001E09E
:10590000B24601E0B24600252B46029303F070FF39
:1059100099F80020824269D803F06AFF3C4A3D4969
:1059200012789BF800B0C2EB0009C1F80090029B0E
:10593000DB009BB25B444B44B3F5807F56D83CB14F
:105940002C4B04EB0B00196811444A4605F0C4F8CF
:10595000B8F1000F37D0BAF1000F09D02E497BB251
:10596000B82000FB03130BEB090292B29A821A844F
:105970006DB37DB2B8226A43274928488B18A3F833
:10598000148003F122011A8C05F0A6F8244CDFF8EC
:105990009CA014F8012C5AB114F8033CAB4207D177
:1059A00014F8020C1D4B214603EBC00005F094F8DF
:1059B00071345445EDD1F8B2FFF754F846B1194BA4
:1059C000A3F8008008E01EB1002DF8D10EE06EB9FA
:1059D000144BD944A3F80090134C236823B1FFF76C
:1059E000B9F823685B68984701F0FEFE07B0BDE890
:1059F000F08F00BFAC4400209C530020A044002046
:105A000067C7200052C7200056C72000A8440020C6
:105A1000F2580020B0440020BC440020085A002066
:105A2000A9530020F4590020B8440020F558002064
:105A300037B5124B124C1D78237962791B025B1B20
:105A400013449BB2ADF80630BDF8063004F10801EE
:105A50009BB21844202280B205F044FBBDF806201A
:105A600005F12801214492B205F03CFB10B140BA87
:105A700080B201E04FF6FF7003B030BDF358002054
:105A8000085A0020F8B5264F264D3A782649283284
:105A9000531993F801C002234FEACC0C0CF1070C08
:105AA0009C4539DBD0182E18285C1E4C01282ED0BE
:105AB00002D3632802D011E001332BE018461A4DBF
:105AC0000B7002F06BFBC8B93A782B7828321A4475
:105AD00014446278134402332B70F8BD00F0C00008
:105AE000802805D0C02805D0402810D10B7005E0D3
:105AF0000B7005E00B70217EFF2901D10120F8BD5C
:105B0000042002211A4401F02FFD0220F8BD707814
:105B100002300344DBB2C3E70B700020F8BD00BFC6
:105B2000F3580020085A0020F958002070B5C478B6
:105B3000124B0C44E4B2DC7082780E0A3244D2B2CA
:105B40009A704578B2425D700078187005D20135C0
:105B5000EDB25D700DB901301870C9B28C420CDA2B
:105B60000132D1B29970054A39B953780133DBB2A9
:105B7000537013B913780133137070BDFC590020B2
:105B800010B5084C014620681430FFF7CFFF064AD5
:105B9000236811781975517859759178D27899756B
:105BA000DA7510BD185B0020FC59002008B501F023
:105BB000EDF801F0CDFD05F023FB00230D49002297
:105BC0005A520233102BF9D10B49002311443032C1
:105BD000B2F5F07F81F82530F6D1084A4FF48061A4
:105BE0001180074A00211A442033B3F5A07F1182A7
:105BF000F7D108BD045D00201C5B00205E4E002034
:105C0000185D00202DE9F041114E3478F4B1114FA8
:105C100004F12703B7F80080434502DB00233B80F3
:105C200013E00D4DA8F1280204F12801121BC4EB6A
:105C30000804A4B205F12800294404F0C3FF3C8005
:105C4000283C23122B716C7100233370BDE8F08166
:105C5000F3580020F4590020085A0020F8B50346F4
:105C60001C4802880646013292B2B2F5FA4F28BFAC
:105C70004FF4805250BA80B20024174D67193F8A02
:105C80008742F0D02034B4F5A07FF6D132800022D4
:105C900005EB4214268A46B92082618253B9204618
:105CA0001946102204F0F4FF0FE001320A2AEFD166
:105CB0000020F8BD254603F11006186859682A46E9
:105CC00003C20833B3421546F7D1044B20461B7973
:105CD0002375F8BD5E4E0020185D0020605E002038
:105CE0000023064A32F81310814203D1002122F822
:105CF000131070470133082BF3D17047045D002067
:105D00002DE9F74F9E4904280C688A469D4E00F005
:105D100076829D4A9D4D9E4B032815601D609146DD
:105D200012D194F8253003F00F03032B08D1A38B75
:105D3000002B40F05F86974B08221A7000F055BD8B
:105D4000022B40F057866CE002287BD1924A002358
:105D50001370924A33801380914BDA780132D2B2B9
:105D6000DA7062B99A780132D2B29A703AB95A7836
:105D70000132D2B25A7012B91A7801321A7094F8FC
:105D8000253003F0FD02052A0DD194F826300133A9
:105D9000DBB2782B84F8263040F02C86002384F880
:105DA000253000F027BE002B00F02486A28B794915
:105DB000002A3ED094F82620501E84F82600002A9F
:105DC00040F0188694F82720082A05D0581EC0B243
:105DD00001280AD8052A08D1002384F82530802319
:105DE0000B7001F047FE00F00EBD042A9CBF03209B
:105DF000904003F00F0394BFC0B230200132013B4A
:105E000084F8260084F82720072B00F2F385DFE8CA
:105E100013F0710308000A00B804F105B804F10595
:105E2000B804002267E304230B7001F023FE00F0A6
:105E30000CBD03F00F03032B40F0DC8508230B702F
:105E400000F0D3BC052811D156480068008A00280C
:105E500000F0D085002008605349308019604F4B16
:105E6000116018804B4B08221A70C6E14F4D2B78F9
:105E700003F0F003602B40F0BD852B796A791B029B
:105E800031889818884200F3B5852832134433804E
:105E90002B7AFF2B00F0AE85454FAB1D3B60454C88
:105EA0003D4B00221A702270AA799846BAB9012394
:105EB0002370FFF7E7FD012800F09C8503D302283B
:105EC00000F094850BE098F8002002F128032B44A1
:105ED0003B605B78083202EBC30288F8002036484A
:105EE00000F0EEFD002840F0B880334800F090FE4E
:105EF000002840F0B2802A7E2C4BFF2A68D0198BF4
:105F000048F2FE00814263D01989814260D079B99C
:105F1000598969B9998959B9D98949B91B8A3BB94C
:105F2000698A224B21B9998A11B9DB8A002B4FD09B
:105F3000298B1E4B79B9598B69B9998B59B9D98B72
:105F400049B9198C39B9598C29B9998C19B9DB8C93
:105F5000B3F5807F3CD03388B3F5A06F04D902201D
:105F600000214FF4A06206E0EB79104C012B25D8FC
:105F7000002103200A4601F0F7FA00F037BD00BF08
:105F8000185B0020F4590020145B0020445A0020C4
:105F9000F8590020085B0020F3580020145D002011
:105FA000F5580020105B0020385A0020085A0020C5
:105FB0000C5B0020F4580020205A002002F020FA48
:105FC000002800F01785E379013BE37100F00EBD76
:105FD000298948F2FE03994240F00C85298BA44B95
:105FE00081B9598B71B9998B61B9D98B51B9198C18
:105FF00041B9598C31B9998C21B9DB8CB3F5807FCB
:1060000000F0F884FF2A00F0F5849A4800F038FD8B
:106010000246002840F0EE8401200221ABE725D99A
:10602000BBF13A0F7CD02CD9BBF13B0F00F0E284DE
:10603000BBF13C0F70D123788F4998073FD55806A4
:106040006AD443F040030B70FFF71CFD012800F0F9
:10605000D18437D3022800F0C9843A68DFF844C2FB
:1060600092F800B0BBF12B0FD9D138E0BBF1060F8D
:1060700000F01A81BBF1110F73D0BBF1000F4BD1AF
:1060800004E0BBF12C0F00F0B58445E02378D9077C
:1060900042D4794A43F001031370CDF800C0FFF7F2
:1060A000F1FC0128DDF800C000F0A484D2D298F8F9
:1060B000002002F128032B44CCF8003008E043F024
:1060C0000203C0E798F8002002F128032B443B604C
:1060D0005B78083202EBC30288F80020BDE7237822
:1060E00003F0040000F0FF01B0B9634A43F0040379
:1060F000137098F8002002F128032B44D87810B1CF
:1061000004202A3237E7CCF800305B78083202EB03
:10611000C3025A4B1A70A0E704200121521B2AE740
:1061200004F0FCFF4FF6FF73984240F0638498F848
:1061300000302833E85C01F043FB98F80030283346
:10614000EA18E85C517801F0EDF9012803D14B4AD7
:106150000023338013703388002B00F04B8400F051
:1061600045BCFFF74FFDEB8D85F806B053B96F8D39
:10617000002F00F03F84424B424D2B603C4BB3F864
:1061800028800BE004F0D0FF4FF6FF73984240F0F8
:106190003184ECE7238A33B920342C602C683A4BE5
:1061A0009C42F7D315E09F42F6D1638A0BB1984524
:1061B000F2D123682BB963681BB9A3680BB9E368F4
:1061C0005BB132482146102204F052FC0028E3D192
:1061D00003E0012004210022CDE62D4A33882D4D15
:1061E000303BC9F800202C492A602C4A3380022019
:1061F0000023CAF800300870138001F03BFC274BE5
:106200001A88002A00F0F68302F13003184C9BB282
:106210003380283B191263711A4B08321B6852BA3B
:106220002171197DA2850022E2851A8AE1712285F9
:106230005A8A11216285A17104F118050FCB85E8F6
:106240000F0004F10800294600F040FD144B04F152
:106250003C021A6004F068FFC04380B208B1E085D8
:1062600002E04FF6FF73E38502F0B0F8B8E300BF39
:10627000085A0020205A0020F4580020F35800202B
:10628000185D0020105B0020585E0020105A00208E
:10629000385A0020F8590020085B0020145D0020C7
:1062A000145B00200C5B0020FFF7ACFC85F806B007
:1062B00004F037FF4FF6FF739842AC4C40F09A83DE
:1062C000678D002F00F09683B4F828B0BBF1000F63
:1062D00000F09083A64CA44694F825309BB1228A06
:1062E000BA4210D1628A5A450DD1A24821461022E5
:1062F0000193CDF800C004F0BBFB019BDDF800C0AA
:10630000002800F011819C4B30349C42E4D195F878
:10631000353003F03F03022B07D10023974A9A5AE6
:10632000BA4250D00233102BF8D195F835208F4B5C
:10633000500700F15F83142283F835203C2232801D
:10634000502283F8342093F8332093F82F4083F8B9
:106350002F2093F8322093F82E0083F82E2093F804
:10636000312093F82D1093F8307083F82D200134EC
:1063700093F82C20E4B283F8320083F8311083F8CC
:106380002C7083F8302083F8334064B90130C0B2F8
:1063900083F8320038B90131C9B283F8311011B92C
:1063A000013283F830202B8D6A8D724C2A856B85E3
:1063B00004F1100594E80F0085E80F0020462946F7
:1063C00000F084FCF7E20024694B224693F8251084
:1063D00019B9302404FB02C411E0072907D12CB1FC
:1063E00093F8260094F82610884200D91C46013202
:1063F0000A2A03F13003E9D1002C00F0FB820323C9
:106400005C4A84F8263084F82430042384F823304E
:106410000FCA84E80F005A4A012013784FF0000891
:106420002376537884F8250063769378A083A37647
:10643000D378CAF80040E37695F82C3084F82280AF
:10644000237595F82D3084F82780637595F82E30E4
:106450002782A37595F82F30A4F812B0E375FFF7E3
:106460008FFB95F8343003F0F002502A42DD180912
:1064700005388000434683423CDAEA1892F83C1023
:10648000002937D0012901D10133F4E702290FD1C6
:1064900092F83D1004290BD192F83E1092F83F304B
:1064A00043EA0123402B28BF4023E383238421E0D8
:1064B000EA1892F83D20EAB11344DCE72B49308812
:1064C00091F83410283809098900411A03F00F03A4
:1064D00089B2022B318036D102F03F00122853D00E
:1064E000B9B3A88DA18A884236D0920740F12082A4
:1064F000012B37D110221D4B83F835201B4B93F80D
:10650000352042F0020283F83520022283F83C2035
:10651000042283F83D20002283F83E20402283F8A5
:106520003F20328060220AE295F83520154912F0AA
:10653000040FCAF8004008700F46BFD0202384F82B
:1065400025000B70AEE1012BCAD102F03F000228FA
:10655000C5E7910718D0C4E70449C88DE18A88428D
:10656000C3D111E0022B40F0E381C7E7085A0020B5
:106570001C5B0020105A0020FC5C0020045D002001
:10658000F5580020085B0020D3064DD5A18B0029CB
:106590004AD004F11800FFF7C9FAB24B95F8301051
:1065A00093F800C0B04A8C453ED192F8311058782B
:1065B000884239D192F832B09978594534D192F85D
:1065C0003320DB7893422FD1E37694F8273084F898
:1065D00018C06076A176FBB994F8242094F8263090
:1065E00094F82210D21AA2EBD102D2B2D3B218067A
:1065F00048BF5342114494F8232048BFDBB2A2EBBA
:1066000092021344C9B2DBB284F8233003EBD10306
:1066100084F8221084F8243001233B7094F824304D
:1066200084F826300023A38394F8253003F00F026A
:10663000013A072A00F2DE81DFE812F008002400A8
:1066400080003701570170017A012A013A78874B9F
:10665000D2070FD5032284F82520308840221A70F3
:106660000022A283002800F0BD8042221A70FFF7AA
:1066700087FAB7E095F8353003F03F03022B40F07E
:10668000B98137E73B78DB074ED595F8353003F015
:106690003F03122B48D1744B93F8343003F0F002CF
:1066A000502A25DD180905388000002383421FDAAF
:1066B000EA1892F83C10D9B1012901D10133F5E76C
:1066C00002290FD192F83D1004290BD192F83E1007
:1066D00092F83F3043EA0123402B28BF4023E38355
:1066E000238405E0EA1892F83D200AB11344DDE75F
:1066F000032384F8253095F82C300120237595F874
:106700002D30637595F82E30A37595F82F30E3750D
:10671000FFF736FA4223564A3B700023A3833380A7
:1067200088F80030138060E020233B7001F0A2F96C
:10673000DAF80030002283F82520F6E595F83520B8
:10674000D00723D5D90621D4A38B002B40F052814A
:106750003088013080B2FFF713FA3B7843F0100223
:106760003A7032881AB1414A43F01203137001F0B3
:1067700081F90123A383082384F82530002384F8BA
:1067800027301122384B83F83520D4E092060DD5FE
:1067900095F83A1095F83B2042EA0122D9F800100A
:1067A0001144C9F8001031888A1A3280308838B113
:1067B000DB0605D43B7843F002033B70FFF7E0F9BA
:1067C00095F8373095F8362003EB0222238C92B2ED
:1067D0009A4202D8002A18BF1346E3833B789907F0
:1067E00000F00881224B00221A8001F043F91F4B70
:1067F0001A781F4B02F0200000F0FF0128B10022A0
:106800001A8084F825201422BCE702F0100000F062
:10681000FF0540B119800123A383042384F82530A8
:1068200084F82710ADE7198861B1D20748BFA58366
:10683000A28B32B9E28B914288BF1A801B88A38356
:1068400000E01A80002384F827300A4A1368C9F848
:106850000030074B1B887BB1A38B6BB13C3333807B
:10686000182211E0FC590020085A0020085B002083
:10687000145D0020F8590020644B1B789F0740F1FD
:10688000B9803C2333801022614B83F8352054E0DB
:106890003B78DD0740F1AE80002384F825305B4B68
:1068A00010221A7001F0E6F8A4E0308808B1FFF772
:1068B00067F995F8353013F001030ED03B78D8070F
:1068C00007D5072384F82530002384F82630A383D6
:1068D00019E0062384F8253015E03A78D1071AD557
:1068E000052284F82520A38384E0308808B1FFF7CF
:1068F00047F995F83530DA070DD5072384F82530A8
:10690000002384F826300120FFF73AF910233B706A
:1069100001F0B0F80CE0338853B96BE03B78DB074B
:1069200068D5072384F82530002384F8263061E0F9
:10693000102385F835303C233380354B502283F8C3
:106940003420237D324D85F83030637D05F1180702
:1069500085F83130A37D85F83230E37D85F833301A
:10696000237E85F82C30637E85F82D30A37E85F854
:106970002E30E37E85F82F30238A2B85638A6B8542
:1069800094E80F0087E80F0005F10800394600F091
:106990009DF994F8253003F0100303F0FF022BB1AA
:1069A000002385F8373085F8363004E03C2385F83D
:1069B000362085F83730164C0623A371154B1B790A
:1069C000E3713388283B1A1263710023227184F823
:1069D0003B3084F83A30238704F0A3FBC043208780
:1069E0000B4B60221A7000225A705A80074B00220B
:1069F0001A7007E0084A00231370084A33801370A6
:106A0000024A137003B0BDE8F08F00BF085B00209E
:106A1000085A0020605E0020F3580020F45800203F
:106A20002DE9F341144C064600910D4690461F4651
:106A30000194124803212022334604F082FB0128EE
:106A400016D12368187021683046023106F1100310
:106A500050F8042B984241F8042BF9D12068089B88
:106A600085744361099B80F813800777836100E098
:106A7000002002B0BDE8F081304600205C5F0020BD
:106A800070B50C4B0C4D06462B602C680B4B9C4292
:106A90000BD2237833B1A27CA01C3146D20803F07C
:106AA000E7FF20B120342C60EFE7002070BD01200B
:106AB00070BD00BF5C5F002030460020BC5F00203E
:106AC00013B5084C80220346009201940648032126
:106AD000202204F036FB08B9206800E0002002B054
:106AE00010BD00BF34460020785E002010B50C4A6F
:106AF0000C4B136013680C498B420DD2197849B1C5
:106B0000411C02D0997C814204D15C8848F2FE018C
:106B10008C4203D02033ECE7002010BD184610BD96
:106B200034460020785E0020D85E002037B5104D36
:106B3000044680230093122201950E480521234626
:106B400004F0FFFA01282A460ED12B6804F1100147
:106B500018702B682046023350F8044B884243F8E3
:106B6000044BF9D1106800E0002003B030BD00BF35
:106B70002C460020FC5E0020F7B5224D0446802301
:106B800000930E46174601951F48032120222346F5
:106B900004F0D7FA012831D12B6804F110021870E3
:106BA00029682346023153F8040B934241F8040B41
:106BB000F9D12868C77416B90123037505E00023CD
:106BC00003753146183004F0A4F92B680F4A0120F0
:106BD000987402235370FF210023D07211705380E8
:106BE0009380D380138193721173637B1046537328
:106BF000E389D381FFF79AFF286800E0002003B003
:106C0000F0BD00BF34460020785E0020604E0020BA
:106C100013B5084C802203460092019406480521D2
:106C2000122204F08EFA08B9206800E0002002B0B9
:106C300010BD00BF2C460020FC5E002038B5054684
:106C4000C8B10D48022100244170FF220121448077
:106C50008480C48004818472C17202730270EA7BF2
:106C600042732A8AC281FFF7D3FF044A106008B139
:106C700004F08CFA2C7038BD604E00202C460020A9
:106C800010B50E4B0E4C236020680E4B98420ED26E
:106C900003784BB1037D3BB91830FDF77DFD18B18A
:106CA000074B1868FFF7CAFF23682033EBE700F0B3
:106CB00071FBBDE81040044804F008B9785E00207C
:106CC00034460020D85E0020BC5F00202DE9F84348
:106CD0000A8848F2FE039A4205460F4623D00B78F5
:106CE000FF2B20D01C4B1D4A00241A60A146984659
:106CF000D8F800601A4B9E4219D233787BB1B37C2E
:106D0000012B0CD1728848F2FE039A4207D0384614
:106D1000B11C04F048FA484524BF34468146203669
:106D2000C8F80060E4E70120FFF7E0FE04464CB934
:106D30002C806C80AC80EC802C816C81AC81EC81EF
:106D4000BDE8F883A31C123453F8042BA34245F882
:106D5000042BF9D1BDE8F88334460020785E00208A
:106D6000D85E002010B5FDF7A7FD0446FDF7A4FD91
:106D7000054B22029B6892B21044B0FBF3F203FB76
:106D8000120000EB530010BD605E002073B52F4C65
:106D900000F07CF800F010F9002160222C4803F08C
:106DA00077FF00212046F82203F072FF294B2022B2
:106DB0001A70294B18221A704FF4A0632360274BD6
:106DC00040262671A360FFF7CDFF002542F2107325
:106DD000E06023612575224C48F2FE032380658024
:106DE0002B46A580E5802A46314600950195204630
:106DF000FFF716FE20461B4904F0CCF92946012274
:106E00002046FFF7B9FE40F2FF264FF4807320467C
:106E1000E38126806580A580E58025816581A58147
:106E2000FFF784FE4FF40073204626806580A5801E
:106E3000E58025816581A581E381FFF777FE0A481A
:106E40000C2102B0BDE8704004F037B8605E00204D
:106E50005C5F0020595F0020585F0020C0270900B8
:106E6000604E0020005A0020BC5F002010B5044690
:106E700040B100F0FFFE044B21461868BDE8104009
:106E800002F052BC10BD00BFA840002008B502F0BF
:106E9000F3FA034B03491868BDE8084002F08ABBC7
:106EA000A84000206D6E200070B51D460C4B0646B4
:106EB0009DF810201868059B02F0AAFB044668B1F3
:106EC0003046224606F1100350F8041B984242F85F
:106ED000041BF9D16574204600F0CCFE204670BD3D
:106EE000A8400020024B0146186805F062B800BFB8
:106EF000A840002070B50C4E0546306802F06EFBCD
:106F0000044665B9002070BD20462946102203F0D2
:106F1000AFFD38B12146306805F01BF80446002C5F
:106F2000F2D1EFE7204670BDA8400020024B014699
:106F3000186805F025B800BFA840002070B50546C8
:106F400010200C4602F044FD0849064604F0BBFF41
:106F500058B930462946224602F02CFA30462946D6
:106F60002246BDE8704000F05BBE70BDA0C72000A7
:106F70002DE9F04105460D480F46904603F0F3FF1A
:106F8000044688B1012D04D8094804F021F80346CD
:106F900001E0084B1B682846666839464246B04700
:106FA000204604F01CF8EBE7BDE8F081044A00201D
:106FB0007C4600207846002008B50B4804F012F803
:106FC0000A4803F0CDFF0A4B0A49186802F0F2FAAA
:106FD000094804F007F8094803F0C2FFBDE808407B
:106FE000074803F0BDBF00BFDC4000200047002081
:106FF000D8400020FDB12000BC4000207C4600208D
:10700000044A002008B5034640B1054A5968106893
:1070100004F0CFFFBDE8084004F0E1B808BD00BFB0
:10702000D8400020014803F09EBF00BF0047002069
:1070300008B504F0D6F8014638B1044B186804F0DE
:107040009FFF003018BF012008BD08BDD8400020B8
:107050002DE9F0418046FFF7E5FF0026044637465C
:107060009CB194F82450B5420AD3404604F108017B
:10707000EA0803F0FDFC18B9802D08D02E462746FB
:10708000204604F0B7F80446EAE73C4667B10848F2
:1070900003F069FF844207D00548214603F06CFFE6
:1070A0000348214603F08BFF2046BDE8F08100BF76
:1070B0000047002038B5044600283ED04368002B26
:1070C0003BD01E48214603F057FF6368586803F021
:1070D0004AFF054630B14368A34207D0284603F073
:1070E0007EFFF6E704F1080000F0F8FC636829462B
:1070F000586803F041FF6368586803F034FF28B90B
:1071000063680F4A5968106802F00EFB21460D486B
:1071100003F08CFF29460C4803F088FF0B4B2046F8
:107120001A68013A1A60FFF76DFF04F10801024680
:10713000BDE838400320FFF71BBF38BD00470020E3
:10714000D8400020DC400020E840002078460020A5
:1071500010B5044680B1406870B103F004FF20B15F
:107160004068FFF7A7FF6068F7E7044B21461868FF
:10717000BDE8104002F0D8BA10BD00BFD8400020D2
:107180002DE9F84F064610468946904604F029F846
:10719000044610B90020BDE8F88F3046FFF758FFCD
:1071A000074660B1FFF72EFF014628B14046102286
:1071B00003F05EFC00285ED03846FFF77BFF2F4BC4
:1071C0001A689B46102AE5D02D4F2146386804F0F6
:1071D000D7FEBA46054668B92B46386821460422D0
:1071E00002F016FA05460028D4D000236860036038
:1071F00003F0B6FE234803F005FF04460028C9D07B
:107200002148214603F0DBFE204803F0FBFE074641
:1072100020B921461B4803F009FF2CE044603946A1
:10722000686803F0BDFEDBF8003065600133DAF812
:1072300000002946CBF8003006F1100702F08AFA68
:10724000334604F1080218685968154603C5083327
:10725000BB422A46F7D184F8249004F1180000219B
:107260000C2203F015FD022031464246FFF780FE56
:107270002046BDE8F88F3846BDE8F88F78460020F4
:10728000D8400020DC40002000470020E8400020DB
:1072900038B505460D4803F066FE0446A0B1AC4281
:1072A0000ED12146094803F067FE2146084803F045
:1072B000BDFE211D01200A46BDE83840FFF758BE3B
:1072C000204603F08CFEE8E738BD00BF7C46002076
:1072D000BC40002038B50546084803F044FE04468B
:1072E00048B1201D2946102203F0C2FB18B12046E8
:1072F00003F075FEF3E7204638BD00BF7C46002052
:10730000F8B505460F46FFF7E5FF044640B91348B8
:1073100003F078FE0446F0B11148214603F04FFE19
:107320002B46261D05F1100E18685968324603C217
:10733000083373451646F7D137B104F114003946C6
:1073400003F0E7FD002300E0012323770020294616
:107350002A46FFF70DFE2046F8BD00BFBC400020C6
:107360007C46002038B50A4803F0FDFD00250446A0
:107370005CB1251D2846FFF7BDFD08B1437C23B94C
:10738000204603F02CFE0446F2E7284638BD00BF35
:107390007C46002010B50A4803F0E5FD044670B1B4
:1073A000237F43B904F11400FDF7F6F918B1204624
:1073B000FFF76EFFEFE7204603F011FEEEE710BD8A
:1073C0007C4600202DE9FF411F4C204F04F10803AB
:1073D0000FCB8DE80F003B7894F80780ABB11C49C8
:1073E0003A22A2710A88D21A92B20A80A2F1280126
:1073F0000812617103F12C012071214404F12C0069
:107400002C3A03F0DFFB00233B70124803F0ABFD86
:10741000054690B1D5F804C0BCF1000F09D00C4B63
:107420003A781B8838322C3B6846414622449BB24E
:10743000E047284603F0D3FDEAE7054B3870188093
:1074400004B0BDE8F08100BF085A0020F3580020C6
:10745000F4590020084A0020F8B52B4B2B4E1B791D
:1074600006F11805F371337E06F10804FF2B08D1ED
:1074700094E80F0085E80F0020462946FFF726FC18
:107480001BE0234A2746AE463B4603CB73451060BC
:1074900051601F4602F10802F6D195E80F0084E81A
:1074A0000F001B4B1B4C03F110051868596822464E
:1074B00003C20833AB421446F7D1174C217899B177
:1074C0003A23B371154B1A88521A92B21A80A2F15C
:1074D000280318122C3130717371114831442C3A41
:1074E00003F070FB0023237000F070FF23788122EB
:1074F0002833F418F25400236370638003F00EFE07
:10750000C0436080F8BD00BF605E0020085A0020C4
:10751000904F0020205A0020F3580020F4590020FA
:10752000345A002038B504460B480D4603F01BFDC5
:1075300050B10379A34204D14379AB4206D0FF2B6B
:1075400004D003F04CFDF3E7012038BD8368002B25
:10755000FAD09847002038BD0C4A00200146014867
:1075600003F01EBD0C4A00202DE9F74F4C4D80461C
:107570002B780F4691464B4C3BB12833E35C3A2BBA
:107580000AD1494A0023138085E0A3793A2B03D11D
:1075900094F92830002BF4DA444E00F0BFFE444A40
:1075A00006F1100EB346334603CB734510605160AD
:1075B0001E4602F10802F6D13B4E95F800A0338832
:1075C00004EB4A0030339BB2B3F5A06F88BF4FF491
:1075D000A06333803288334BCAEB02021946303A3B
:1075E0003030019303F0EEFA6022227000226270C4
:1075F0006280019B3A22BAF1000F02D083F8282062
:1076000000E09A712B4A274B1279E27122896AB9FC
:107610005A895AB99A894AB9DA893AB91A8A2AB971
:107620005A8A1AB99A8A0AB9DB8A9BB3224B0FCBC2
:107630008BE80F001E4A1378FF2B04D1B8F1040F1A
:1076400027D1022F25D11A491B48FFF73FFB95F898
:1076500000A048460AF12803E21804F80380577096
:1076600003F065FD33880AF12C0A283B44F80A0030
:107670001A1263712B78227128331C440023638013
:1076800003F04CFDC043608003B0BDE8F04F00F054
:107690009DBE002333802B7003B0BDE8F08F00BF88
:1076A000F3580020085A0020F4590020205A0020E6
:1076B000904F0020605E0020105A00202DE9F04716
:1076C0001E4C9846602323700023637063803A2326
:1076D000A3711B4B92461B798946E37108F10403A1
:1076E0001A1263712271054604F1180700F11003A4
:1076F000286869683E4603C608359D423746F7D17B
:10770000104808F12C0800F11001FFF7DFFA0E4BCA
:107710001B782833E51804F8039000236B8085F864
:1077200001A003F0FBFC094BC0436880A3F8008074
:1077300000F04CFEBDE8F04700F068B8085A0020A1
:10774000605E0020105A0020F3580020F4590020F9
:1077500008B50448FFF702FFBDE808400248FFF7FC
:10776000FDBE00BFF44000200041002008B50548E0
:1077700003F0BEFB20B10348BDE8084003F0AFBBF7
:1077800008BD00BF544A002008B5034B1B680BB16D
:10779000984708BD184608BD644A0020014B186090
:1077A000704700BF644A002010B51446FEF756FA31
:1077B00018B1024BC4611B68836110BD00430020F7
:1077C00007B5074B8DF80700186828B1054B0DF178
:1077D00007021978FCF79CFF03B05DF804FB00BFBB
:1077E000FC5C00207A61002008B5002204480221D8
:1077F000FCF78EFF034A00231380034A137008BD71
:107800000C410020F4590020F358002070B52C4D95
:107810002B88002B53D0B3F5A06F2CD8294B1A8B93
:107820006AB95A8B5AB99A8B4AB9DA8B3AB91A8C17
:107830002AB95A8C1AB99A8C0AB9DA8CDAB11B7E39
:10784000FF2B15D02048FFF71BF9C8B11E4C20466E
:1078500000F020FD18B91D4B2880187070BD20461F
:10786000FFF748FB08B9288070BDFFF73BFB00E03D
:107870000020FFF789FF154A00232B80137070BD8D
:107880001148FFF7E5FB064640B9FFF76BFD0446DC
:107890000028DCD10D4B2880187070BDFFF7B2FBBB
:1078A00004460028D3D1F36923B11B6A93F89400EE
:1078B00003F049FF3046BDE87040FFF7FBBB70BDE9
:1078C000F4590020085A0020205A0020F3580020C4
:1078D000F8B503880646144633B1B3F5527F22D07B
:1078E000002303800320F8BD1C46534B0022E252C4
:1078F0000834402CF9D1514A12681A64FCF780FE12
:107900004F4B1870FCF77CFE4E4B214618704E48CA
:1079100003F0D3FAFEF74AF900F0DEF94FF45273A0
:1079200033800120F8BD022917D1484B1A881C4624
:10793000002AF3D0464A9379062B05D192F83530C8
:107940009B0701D5FFF712FF0120FEF7D9F9238825
:10795000002BE3D0FFF75AFFE0E716D859B9002C07
:10796000DCD03C4B03201C60FEF7CAF9FFF74EFF4A
:10797000FFF7FCFED2E70129D0D1002CCED0364B48
:1079800005201C60FEF7BCF9E4E7872929D0882987
:10799000C4D12D4B9C4203D0304B9C42BED118E049
:1079A000204603F0A5FA0028F6D02D4D05F5C07746
:1079B00095F825304BB1244803F091FA254B02206D
:1079C0001D60FEF79DF9FFF721FF3035BD42EFD175
:1079D000E2E7204603F08CFA00289FD0FFF750F929
:1079E000B8E7204D05F1400755F8043CA34208D103
:1079F00035F8080CFEF774F9002325F8083C45F823
:107A0000043C0835BD42EFD1154B9A6AA24203D11E
:107A100000229A6283F82520134A30339342F4D12E
:107A2000124B9A692033A24204BF002223F8102C83
:107A30000F4A9342F5D171E7104A0020004300201D
:107A4000796100207A610020544A0020F459002016
:107A5000085A0020185B0020105B0020BC5F00204B
:107A60001C5B0020184A00209C5C0020185D002050
:107A7000585E002010B5144B1B6813B103F12804A5
:107A800002E0124A14681834114A1278520611D5CD
:107A9000198A00230F4A985A884206D11A4452681C
:107AA0001AB100232260636002E00833402BF1D159
:107AB000FFF75CFE206830B1074B62681978BDE8BB
:107AC0001040FCF725BE10BD185B0020105B0020A5
:107AD000085B0020104A002079610020F7B50446B9
